:020000040800F2
:10000000400500200101000825140008AD0C00087F
:1000100021140008010200087F16000800000000FB
:10002000000000000000000000000000491400086B
:100030002D0600080000000027140008A115000884
:100040001B0100081B0100081B0100081B01000820
:100050001B0100081B0100081B0100081B01000810
:100060001B0100081B0100081B0100081B01000800
:100070001B0100081B0100081B0100081B010008F0
:100080001B0100081B0100081B0100081B010008E0
:100090001B0100081B0100081B0100081B010008D0
:1000A0001B0100081B0100081B0100081B010008C0
:1000B0001B0100081B010008000000001B010008D4
:1000C0001B01000800000000000000001B010008E8
:1000D00000000000051600081B01000800000000D9
:1000E0001B0100081B0100081B010008DFF80CD0F1
:1000F00000F02EF800480047891A0008400500204B
:100100000648804706480047FEE7FEE7FEE7FEE7B1
:10011000FEE7FEE7FEE7FEE7FEE7FEE7A5150008BF
:10012000ED00000830B50B460146002020220124D6
:1001300009E021FA02F59D4205D303FA02F5491BB5
:1001400004FA02F52844151EA2F10102F1DC30BDCB
:10015000064C074D06E0E06840F0010394E8070014
:1001600098471034AC42F6D3FFF7C4FF743A000846
:10017000943A000870B58C1810F8015B15F007036D
:1001800001D110F8013B2A1106D110F8012B03E030
:1001900010F8016B01F8016B5B1EF9D12B0705D438
:1001A0000023521E0DD401F8013BFAE710F8013B81
:1001B000CB1A921C03E013F8015B01F8015B521E9D
:1001C000F9D5A142D8D3002070BD000008B50121A7
:1001D000042001F029F90220ADF8000003208DF879
:1001E000020010208DF803006946034800F01FFA52
:1001F00001200249086008BD000801408401214235
:1002000000BFFEE710B5002400F01CF804210C48E4
:1002100000F09CFA012801D1002010BD01E0601C13
:10022000C4B20421064800F091FA08B9C82CF6DBE4
:10023000282001F0FBFB282001F0F8FB0120ECE76F
:100240000008014008B50420ADF800008DF8030057
:100250006946024800F0EBF908BD000000080140C3
:1002600008B50420ADF8000003208DF8020010202E
:100270008DF803006946024800F0D9F908BD000076
:100280000008014010B50121042001F0CDF800F074
:100290006BF8FFF7B7FF10BD10B5002404E0601C39
:1002A000C4B2022001F0C2FB0421104800F04EFA53
:1002B000012801D1642CF2DB002404E0601CC4B2EC
:1002C000022001F0B3FB0421084800F03FFA08B90E
:1002D000642CF3DB282001F0A9FB0421034800F083
:1002E00035FA012800D110BD0020FCE700080140CC
:1002F00070B50024002506E06006040EFFF7CCFF71
:100300000443681CC5B2082DF6DB204670BD7CB5E1
:1003100005460E4600F028F8FFF774FFF8B90024F0
:1003200005E0FFF7E5FF0DF80400601CC4B2052CE2
:10033000F7DB9DF800009DF8011008449DF80210BD
:1003400008449DF8031008449DF80410884208D121
:100350009DF8000030709DF80200287001E0012037
:100360007CBD0020FCE7000010B5FFF779FF0421F9
:10037000094800F0FAF90421074800F0F4F946F2C0
:10038000A81001F053FB0421034800F0EEF93720D8
:1003900001F04CFB10BD0000000801401FB500F04B
:1003A0001BF94848007800118DF800004548007896
:1003B00000F00F008DF801004248407800118DF8E0
:1003C00002004048407800F00F008DF803003D48DF
:1003D000807800118DF804003A48807800F00F0012
:1003E0008DF805003748C07800118DF806003548B3
:1003F000C07800F00F008DF807003248C07900F097
:1004000007008DF808002F48007900118DF80900C9
:100410002C48007900F00F008DF80A002948407937
:1004200000118DF80B002748407900F00F008DF87F
:100430000C002448807900118DF80D002148807946
:1004400000F00F008DF80E009DF803009DF80210DB
:1004500001EB810100EB41001B49C8709DF80500CC
:100460009DF8041001EB810100EB41001649087171
:100470009DF807009DF8061001EB810100EB41009B
:10048000114948719DF80A009DF8091001EB81019E
:1004900000EB41000C4908709DF80C009DF80B1012
:1004A00001EB810100EB4100074948709DF80E0007
:1004B0009DF80D1001EB810100EB410002498870AD
:1004C0001FBD00000B0000200400002008B5012122
:1004D000082000F0A9FF0720ADF8000010208DF8DB
:1004E000030003208DF802006946064800F09FF8DB
:1004F0000221044800F039F90521024800F033F9DF
:1005000008BD0000000C014070B5044600202F49D2
:1005100008600A2001F0B6FA01202D49C1F88801CF
:1005200044F001042B48006820F0F00029490860DD
:100530000846006840F030000860002619E004F02A
:10054000010020B101202149091F086003E00020BB
:100550001E49091F086001201C49083908600A204B
:1005600001F090FA00201A49C1F880016410701C53
:10057000C6B2082EE3DB1748006820F0F0001549EA
:1005800008600846006840F080000860002616E019
:100590006D100E488438006810B145F0800501E008
:1005A00005F07F0501200949083908600A2001F09B
:1005B00069FA00200649C1F88001701CC6B2082EF5
:1005C000E6DB002001490860284670BD8881214291
:1005D00000802142000C014010B58C20FFF794FFF1
:1005E000114948708820FFF78FFF0F4988708620D7
:1005F000FFF78AFF0C49C8708420FFF785FF0A497E
:1006000008718220FFF780FF074948718020FFF7BB
:100610007BFF00F07F00044988718A20FFF774FF98
:100620000149C87110BD00000B00002070472DE982
:10063000F041024600250026002000230024002768
:1006400091F803C00CF00F0591F803C00CF0100CEA
:10065000BCF1000F03D091F802C04CEA050591F8F7
:1006600000C0BCF1000F31D0146800202BE04FF027
:10067000010C0CFA00F3B1F800C00CEA03069E422C
:1006800020D183004FF00F0C0CFA03F7BC4305FA9E
:1006900003FC4CEA040491F803C0BCF1280F06D116
:1006A0004FF0010C0CFA00FCC2F814C00AE091F8FB
:1006B00003C0BCF1480F05D14FF0010C0CFA00FC4F
:1006C000C2F810C0401C0828D1D31460B1F800C093
:1006D000BCF1FF0F34DD546800202EE000F1080C5F
:1006E0004FF0010808FA0CF3B1F800C00CEA030659
:1006F0009E4221D183004FF00F0C0CFA03F7BC434C
:1007000005FA03FC4CEA040491F803C0BCF1280F7D
:1007100005D100F1080C08FA0CF8C2F8148091F821
:1007200003C0BCF1480F07D100F1080C4FF00108DD
:1007300008FA0CF8C2F81080401C0828CED3546088
:10074000BDE8F0810146886880B27047024600200B
:1007500093680B400BB1012000E000207047014678
:10076000C86880B270474161704701617047C160DD
:10077000704700002DE9FF4F83B00C461F466421EF
:10078000039890FBF1F0C0B20190039890FBF1F256
:1007900001FB1200C5B20198132806D00198142855
:1007A00003D0002007B0BDE8F08F0198142806D1CF
:1007B00005F1630000EB40001FFA80F904E0681EB9
:1007C00000EB40001FFA80F96B4909F10200085C58
:1007D00000F0600A4FEA6A1A09F10200085C00F0B2
:1007E0001F0BBAF1010F04D1ABF1010000F0FF08BB
:1007F00003E00BF11E0000F0FF080A2C07DA601E70
:100800005E49095C05980844401E86B208E0A4F1E0
:100810000A005B4931F8101005980844401E86B262
:10082000022C08DDE91705EB91718910A5EB810118
:1008300009B9701C86B246453EDBA6EB080086B2BD
:10084000012401200290002000904946029800F007
:100850009DF910B94FF01D0A01E04FF01E0A4649FC
:1008600011F80900C11700EB11714FEA211B1DE0BF
:10087000A6EB0A0086B20298401CC0B202905C450A
:1008800008D10098C043C0B20090009820B9601C05
:10089000C4B201E0601CC4B24946029800F076F987
:1008A00010B94FF01D0A01E04FF01E0A5645DFDA7D
:1008B000701CC0B205904FE0A8EB060000F0FF08E6
:1008C0001DB963251320019001E0681EC5B2A9F18E
:1008D00003001FFA80F90C24274911F80900C117F9
:1008E00000EB11714FEA211BBBF1000F02D10C206C
:1008F000029001E00D2002900020009049460298ED
:1009000000F044F910B94FF01D0A01E04FF01E0A43
:100910001BE0A8EB0A0000F0FF080298401EC0B2DE
:100920000290009808B9601EC4B25C4503D10098DB
:10093000C043C0B200904946029800F027F910B9B0
:100940004FF01D0A01E04FF01E0AD045E1DCAAEB92
:100950000800401CC0B20590019807F8010B07F889
:10096000015B07F8014B0598387006490598087037
:1009700005480470012015E7EE350008FB38000833
:10098000043900083D0100203C0100202DE9F04120
:1009900004460D46B4F5FA6F03DB40F602008442CC
:1009A00002DD0020BDE8F0810DB10C2D01DD00203D
:1009B000F8E7681E4006010E0F2A01DB481CC1B291
:1009C00008464FEAE17C01EB5C7C4FEAEC08A4F5B9
:1009D000FA6C0CEB4C0CC444DFF8508018F80C6037
:1009E0004FEAE17C01EB5C7C4FEAEC0CA1EBCC0C18
:1009F00006FA0CFC0CF080070D48405C187097B1AB
:100A0000012905D00B2903D0122901D0152907D1BE
:100A100040F2FC70844203DA1878401C187002E03F
:100A20001878401E18700120BCE700004338000809
:100A3000E33800082DE9F84105460F4614461E46E6
:100A40006B46224639462846FFF7A0FF10B9002022
:100A5000BDE8F881781E4006000E454908700F2C4D
:100A600003DB08460078401C08709DF800008442B3
:100A70000AD140483E4A127850F8221005223046EA
:100A800000F058FD0120E3E70F223BA1304600F0C3
:100A900051FD9DF8000084420DDA3648344A127840
:100AA00050F822100422B01C00F044FD9DF8000014
:100AB000001BC4B24DE02E480078401C172801DD11
:100AC0000020C5E72B4A2A480078401C52F8201025
:100AD0000422B01C00F02EFD0F2C0ADA6B460F2208
:100AE00039462846FFF752FF9DF80000001BC4B2AC
:100AF0002FE0781E244911F80080022F17D1E91742
:100B000005EB91718910A5EB810181B9642195FBF9
:100B1000F1F201FB125131B94FF4C87195FBF1F2BA
:100B200001FB125119B908F1010000F0FF08781C0F
:100B3000C0B207460D2800D101276B460122394675
:100B40002846FFF723FFA8EB04009DF80010084497
:100B5000C4B20A2094FBF0F03030B0720A2094FB4B
:100B6000F0F100FB11403030F072012070E700001E
:100B70003E01002014000020C0EBC1A2B6ACBBB9FE
:100B8000D3D03F3FCCEC00001639000802460E2AB5
:100B900070D2DFE802F086071019222B353F495347
:100BA0005D67727C4048405C00F0080008B9002096
:100BB00070470120FCE73C48405C00F0040008B9A5
:100BC0000020F5E70120F3E73748405C00F0020021
:100BD00008B90020ECE70120EAE73348405C00F068
:100BE000010008B90020E3E70120E1E72E4B481C93
:100BF000185C00F0800008B90020D9E70120D7E791
:100C0000294B481C185C00F0400008B90020CFE7D1
:100C10000120CDE7244B481C185C00F0200008B9E7
:100C20000020C5E70120C3E71F4B481C185C00F0FB
:100C3000100008B90020BBE70120B9E71A4B481C97
:100C4000185C00F0080008B90020B1E70120AFE708
:100C5000154B481C185C00F0040008B90020A7E7F9
:100C60000120A5E7104B481C185C00F0020010B9E9
:100C700000209DE715E001209AE70B4B481C185C0B
:100C800000F0010008B9002092E7012090E7064B30
:100C9000881C185C00F0800008B9002088E701205B
:100CA00086E7002084E70000EE35000800BFFEE77D
:100CB00008B50121082000F0B7FB0820ADF80000BE
:100CC00004208DF8030069461048FFF7B0FC10209F
:100CD000ADF8000004208DF8030069460B48FFF7CB
:100CE000A6FC2020ADF8000004208DF80300694622
:100CF0000648FFF79CFC4020ADF8000004208DF86A
:100D0000030069460148FFF792FC08BD000C014052
:100D100070B504460D4629462046FFF717FD40B939
:100D200000BF29462046FFF711FD0028F9D000201A
:100D300070BD0120FCE7000010B54FF4806116483B
:100D4000FFF711FD4FF400711348FFF70EFD4FF44C
:100D500080711148FFF709FDFF2000F001FB13E04F
:100D60004FF480710C48FFF7FEFC022000F082FE79
:100D70004FF480710848FFF7F8FC0748FFF7E2FCE2
:100D800000F0800000B900E0EAE700BF4FF4807196
:100D90000148FFF7E8FC10BD0010014010B5044603
:100DA0002046E11704EB5171C910A4EBC101CCB28C
:100DB00005490878C11700EB5171A4EBE101CCB2F1
:100DC000204600F05DF810BD0300002010B5044679
:100DD000FFF7B2FF4FF480610E48FFF7C4FC4FF4F9
:100DE00000710C48FFF7BFFC4FF480710948FFF712
:100DF000BCFC1CB13F2000F0B3FA02E03E2000F042
:100E0000AFFA022000F036FE4FF480710148FFF780
:100E1000AAFC10BD0010014010B504462046E117A1
:100E200004EB5161C911A4EBC111CCB2402C03DA1F
:100E3000012000F027F902E0022000F023F9FFF77B
:100E40007BFF4FF480610D48FFF78DFC4FF400717C
:100E50000A48FFF788FC4FF480710848FFF785FCCB
:100E600044F04004204600F07BFA022000F002FE2D
:100E70004FF480710148FFF776FC10BD001001406F
:100E800010B504462046E11704EB5171C910A4EBDC
:100E9000C101CCB2FFF750FF4FF480610D48FFF75E
:100EA00062FC4FF400710B48FFF75DFC4FF480715A
:100EB0000848FFF75AFC44F0B804204600F050FA06
:100EC000022000F0D7FD4FF480710248FFF74BFC81
:100ED00010BD00000010014010B50446FFF72CFFC4
:100EE0004FF480610C48FFF740FC4FF400710A4852
:100EF000FFF739FC4FF480710748FFF736FC2046B6
:100F000000F02EFA022000F0B5FD4FF48071024887
:100F1000FFF729FC10BD0000001001402DE9F0474B
:100F200006460F4691469A464FF000083046F117A4
:100F300006EB5171C910A6EBC101CEB23846F917C4
:100F400007EB5161C911A7EBC111CFB23846FFF7CA
:100F500063FF781EC5B2BAF1010F31D13046FFF7F9
:100F60001DFF28E0002420E0681CC5B2402D06D1FA
:100F70002846FFF751FF3046FFF710FF08E0802DAD
:100F800006D100252846FFF747FF3046FFF706FF4A
:100F900019F80810203901EB4101384A02EB4101F0
:100FA000085DFFF799FF601CC4B2062CDCDB08F17A
:100FB000010000F0FF0819F808000028D2D15AE01B
:100FC000BAF1020F57D152E03046FFF7E7FE002496
:100FD00047E0681CC5B2082C12D1082D05DAC5F10E
:100FE0000800C0F18000C5B202E0A5F10800C5B25A
:100FF0002846FFF711FF711CC8B2FFF7CFFE23E0B0
:10100000402D0FD12846FFF707FF082C03DA3046A2
:10101000FFF7C4FE18E0082C16DB711CC8B2FFF7FE
:10102000BDFE11E0802D0FD100252846FFF7F4FE0C
:10103000082C03DA3046FFF7B1FE05E0082C03DB8D
:10104000711CC8B2FFF7AAFE19F80810203901EB8D
:1010500081010B4A02EB8101085DFFF73DFF601C37
:10106000C4B2102CB5DB08F1010000F0FF0819F83C
:1010700008000028A8D1BDE8F0870000541F000830
:101080008E21000810B504462046E11704EB91714B
:101090008910A4EB8101CCB23CB3012C0FD0022CFF
:1010A00002D0032C2CD115E04FF400611548FFF756
:1010B0005AFB4FF480511348FFF757FB20E04FF4E1
:1010C00000611048FFF751FB4FF480510D48FFF7C6
:1010D0004AFB15E04FF400610A48FFF744FB4FF468
:1010E00080510848FFF73FFB0AE04FF400610548D4
:1010F000FFF73BFB4FF480510248FFF736FB00BF80
:1011000000BF10BD001001402DE9F04706460F4614
:1011100091469A464FF000083046F11706EB5171A0
:10112000C910A6EBC101CEB23846F91707EB5161E1
:10113000C911A7EBC111CFB23846FFF76DFE781E7B
:10114000C5B2BAF1020F58D152E03046FFF726FE81
:10115000002447E0681CC5B20A2C12D10A2D05DA1A
:10116000C5F10A00C0F18000C5B202E0A5F10A0095
:10117000C5B22846FFF750FE711CC8B2FFF70EFE3D
:1011800023E0402D0FD12846FFF746FE0A2C03DA54
:101190003046FFF703FE18E00A2C16DB711CC8B2BC
:1011A000FFF7FCFD11E0802D0FD100252846FFF749
:1011B00033FE0A2C03DA3046FFF7F0FD05E00A2C77
:1011C00003DB711CC8B2FFF7E9FD19F80810491ECE
:1011D00001EB8101364A02EB8101085DFFF77CFEDD
:1011E000601CC4B2142CB5DB08F1010000F0FF084C
:1011F00019F808000028A8D158E0BAF1030F55D11A
:1012000050E03046FFF7CAFD002445E0681CC5B237
:10121000102C12D1102D05DAC5F11000C0F180009C
:10122000C5B202E0A5F11000C5B22846FFF7F4FDF3
:10123000711CC8B2FFF7B2FD23E0402D0FD1284644
:10124000FFF7EAFD102C03DA3046FFF7A7FD18E0A0
:10125000102C16DB711CC8B2FFF7A0FD11E0802D29
:101260000FD100252846FFF7D7FD102C03DA3046B2
:10127000FFF794FD05E0102C03DB711CC8B2FFF7EB
:101280008DFD19F80810491E0A4A02EB4111085D4C
:10129000FFF722FE601CC4B2202CB7DB08F101006E
:1012A00000F0FF0819F808000028AAD1BDE8F0876F
:1012B00086300008862A000808B50121102000F0B9
:1012C000B3F810208DF8030003208DF802004FF4CE
:1012D0000050ADF8000069461548FFF7A8F94FF433
:1012E0008070ADF8000069461148FFF7A0F94FF48F
:1012F0008060ADF8000069460D48FFF798F94FF49B
:101300000070ADF8000069460948FFF790F94FF406
:101310008050ADF8000069460548FFF788F94FF4A2
:101320000060ADF8000069460148FFF780F908BD8C
:101330000010014008B50121102000F075F81420BC
:101340008DF8030003208DF80200FF20ADF80000A7
:1013500069460248FFF76BF908BD00000010014024
:1013600070B504460548FFF7FAF900F47F452543B8
:1013700029460248FFF7FBF970BD0000001001404C
:1013800010B504462046E11704EB91618911A4EBE6
:101390008111CCB2C4F14000C4B2FFF7CDFC4FF4D0
:1013A00080610D48FFF7DFF94FF400710A48FFF73D
:1013B000DAF94FF480710848FFF7D7F944F0C00418
:1013C0002046FFF7CDFF022000F054FB4FF4807160
:1013D0000148FFF7C8F910BD0010014010B5FFF734
:1013E000A9FFFFF769FF4FF400510B48FFF7BBF966
:1013F0000A2000F021FB4FF400510748FFF7B5F930
:10140000322000F019FB0120FFF7E0FC03480078D0
:10141000FFF7B6FF10BD00000010014003000020E0
:1014200000BFFEE77047704729B1064A9269024340
:10143000044B9A6104E0034A92698243014B9A612A
:101440007047000000100240704710B500F002F82D
:1014500010BD00000CB500200190009033480068DA
:1014600040F480303149086000BF3048006800F423
:10147000003000900198401C0190009818B9019824
:10148000B0F5A06FF1D12948006800F4003010B128
:101490000120009001E0002000900098012843D135
:1014A0002348006840F010002149086008460068A1
:1014B00020F0030008600846006840F00200086061
:1014C0001A4840681949486008464068486008461C
:1014D000406840F4806048600846406820F47C1012
:1014E00048600846406840F4E810486008460068D4
:1014F00040F08070086000BF0C48006800F0007089
:101500000028F9D00948406820F0030007494860E6
:101510000846406840F00200486000BF0348406849
:1015200000F00C000828F9D10CBD000000100240AA
:101530000020024010B5002305E011F8014B00F82F
:10154000014B5C1CA3B29342F7DB10BD30B50146E2
:10155000B1F1807F01D3012030BD21F07F40401EDA
:101560004FF0E022506150170F22002807DA1307CE
:101570001D0E094B00F00F04241F1D5503E0130737
:101580001C0E064B1C5400BF00204FF0E02290615F
:10159000072010610020DFE718ED00E000E400E024
:1015A0007047000010B51348006840F00100114971
:1015B000086008464068104908400E4948600846DF
:1015C00000680E4908400B4908600846006820F48E
:1015D000802008600846406820F4FE0048604FF410
:1015E0001F008860FFF731FF4FF00060044908607A
:1015F00010BD0000001002400000FFF8FFFFF6FEE3
:1016000008ED00E010B540F22551044800F008F85C
:1016100018B1024800F02EF8C4B210BD00380140E5
:1016200070B50246002400230025002040F66A160B
:10163000B14200D100BFC1F3421501F01F030126E2
:1016400006FA03F3012D02D19689334006E0022DFC
:1016500002D1168A334001E0968A33400C120126EB
:1016600006FA04F41688344013B10CB1012000E0EE
:10167000002070BD01468888C0F30800704700BF95
:10168000FEE700000FB41CB50246002007AC00299D
:101690000BD0491ECDE90021054B6A46214606982C
:1016A00000F018F8009A002111701CBC5DF814FBC2
:1016B000171A000802E008C8121F08C1002AFAD150
:1016C00070477047002001E001C1121F002AFBD1C2
:1016D000704700002DE9FF4F8BB088460546002675
:1016E00006E025280BD0DDE90D1290476D1C761C15
:1016F00028780028F5D10FB03046BDE8F08F0024DF
:10170000A146A2460122AE4900E0044315F8013F7C
:10171000203B02FA03F00842F7D128782A2810D09B
:101720006FF02F022878A0F13001092915D809EBB4
:10173000890102EB410144F0020400EB01096D1C38
:10174000F0E758F8041B5FEA010903D544F400549C
:10175000C9F1000944F002046D1C28782E2817D125
:1017600015F8010F44F004042A280ED06FF02F0260
:101770002878A0F1300109290AD80AEB8A0102EB86
:10178000410100EB010A6D1CF2E758F804AB6D1C37
:1017900028786C280FD006DC4C2817D068280DD08C
:1017A0006A2814D104E0742810D07A280FD10DE0F3
:1017B00044F400140AE044F4801401E044F44014BA
:1017C0006978814202D104F580146D1C6D1C287863
:1017D000692865D006DC00288DD0632827D06428CE
:1017E00006D15DE06E2808D073282AD0752877D0FE
:1017F000DDE90D129047761CE0E0C4F302500228A8
:1018000009D003280DD0D8F8001004280DD00E60A0
:1018100008F10408D2E0D8F80010F217C1E900621C
:10182000F6E7D8F800100E80F2E70E70F0E718F82F
:10183000041B8DF8001000208DF80100EB460120FC
:1018400003E058F804BB4FF0FF3061074FF000078A
:1018500001D40AE07F1C57450DDA8742FADB1BF8FA
:1018600007100029F6D106E07F1C8742FCDB1BF83D
:1018700007100029F8D1DDE90D23A9EB0700814607
:10188000214600F0B1F83044C61904E0DDE90D123C
:101890001BF8010B90477F1EF8D22146484688E08E
:1018A00058F8040BC4F302514FF00A0B032900D17E
:1018B00000B2042900D140B2002802DA40422D21B2
:1018C00002E0210505D52B218DF82410012104E02B
:1018D00006E0E10710D02021F6E708AF089113E0F9
:1018E00058F8040BC4F302514FF00A0B032900D13E
:1018F00080B2042900D1C0B20021EEE75946FEF7BC
:1019000011FC303107F8011D0028F7D1ADEB0700BD
:1019100000F1200B600702D524F4803401E04FF081
:10192000010ADA4502DDAAEB0B0000E00020824646
:1019300000EB0B0108980144A9EB01000A90E003B9
:1019400006D4DDE90D2321460A9800F04DF806443F
:101950004FF0000908E009A911F80900DDE90D12AE
:10196000904709F10109761C08998945F3DBE003EA
:101970000CD5DDE90D2321460A9800F035F8064420
:1019800004E0DDE90D1230209047761CBAF1000129
:10199000AAF1010AF5DC05E0DDE90D1217F8010BEB
:1019A0009047761CBBF10001ABF1010BF4DC0A9807
:1019B0002146DDE90D2300F005F806446D1C97E68D
:1019C000092801002DE9F041044600251E4617466E
:1019D000880404D405E039462020B0476D1C641EFD
:1019E000F9D52846BDE8F0812DE9F04104460025EF
:1019F0001E469046C80301D5302700E02027880402
:101A000004D505E041463846B0476D1C641EF9D543
:101A10002846BDE8F0814A68002A06D00A68531CAF
:101A20000B6010704868401E4860704700BF011E80
:101A3000A0F10100FBD1704731B50D48FFF786FDDD
:101A4000002408E000BF4FF0E020006900F480307F
:101A50000028F8D0641C00988442F3D34FF0E020B3
:101A6000006920F001004FF0E021086138BD00005E
:101A70004019010001B500BF0098411E00910028E7
:101A8000FAD108BD704700008CB000200B900025F3
:101A9000002600240A904FF06409CA464FF47A7B6E
:101AA000FFF79CFCFEF792FBFEF7ECFBFEF70EFD4A
:101AB000FFF7FEF8FEF772FCEC480078EC4908707E
:101AC000EA4840784870002088700AA90BA8FEF701
:101AD0001EFCCAE10821E748FFF71AF900283AD1AD
:101AE000012D01D1002500E001256DB9DF48807886
:101AF000DE494978CDE90010DC480378DEA21421E4
:101B000004A8FFF7BFFD20E0D84800780C280FDDBF
:101B1000D6488078D5494978CDE90010D348007877
:101B2000A0F10C03D9A2142104A8FFF7ABFD0CE02F
:101B3000CE488078CD494978CDE90010CB4803786C
:101B4000D7A2142104A8FFF79DFD022304AA0021B7
:101B50001846FFF7E3F91021C648FFF7D9F8002827
:101B600045D1B6B9ACB90126C1488078C049497899
:101B7000CDE901040091BE480378CEA2142104A847
:101B8000FFF780FD022304AA00210420FFF7C6F915
:101B90002DE0022C15D100260024B5488078B449E8
:101BA0004978CDE90010B2480378C8A2142104A8EE
:101BB000FFF768FD022304AA00210420FFF7AEF915
:101BC00015E0601CC4B2AA488078A9494978CDE9DB
:101BD00001040091A6480378B6A2142104A8FFF7D7
:101BE00051FD022304AA00210420FFF797F9012EDA
:101BF00043D120219F48FFF78BF8D8B99C48005D5E
:101C00003B2804DA9A48005D401C994908559848D9
:101C1000807897494978CDE9001095480378B1A2BA
:101C2000142104A8FFF72EFD022304AA202104207A
:101C3000FFF774F940218F48FFF76AF800281BD19D
:101C40008B48005D002804DD8948005D401E8849FE
:101C500008558748807886494978CDE9001084483E
:101C60000378A0A2142104A8FFF70CFD022304AA04
:101C700020210420FFF752F9F7E020217D48FFF7EB
:101C800047F810B901209B49086058460BF1010B39
:101C900042F21071884203D94FF0000BFEF77EFB31
:101CA0007248407948456FD0704890F80590407967
:101CB0006E490979CDE900106C48C3788EA21421D1
:101CC00004A8FFF7DFFC022304AA00210846FFF75F
:101CD00025F9664B5A791979DB7803F5FA6004AB7C
:101CE000FEF748FD8848007800908848037888A26D
:101CF000142104A8FFF7C6FC022304AA58210020DF
:101D0000FFF70CF9594B5A791979DB7803F5FA602A
:101D100004ABFEF78FFE81488149097800EB41034F
:101D200080A2022104A8FFF7ADFC7C487C49097819
:101D300010F81100401CC0B28DF824007748784993
:101D4000097800EB41004078401CC0B28DF82500B6
:101D500000208DF82600032309AA60210220FFF746
:101D6000D3F94348807842494978CDE9001040488A
:101D700003786DA2142104A8FFF784FC022304AAAF
:101D800000210420FFF7CAF83848807850456CD00D
:101D9000364890F802A065B9807834494978CDE991
:101DA00000103248037834A2142104A8FFF76AFC1B
:101DB00020E02E4800780C280FDD2C4880782B4935
:101DC0004978CDE9001029480078A0F10C032FA232
:101DD000142104A8FFF756FC0CE02448807823491E
:101DE0004978CDE90010214803782DA2142104A8D8
:101DF000FFF748FC022304AA00211846FFF78EF8DB
:101E00000AA90BA8FEF783FA9DF82C00874203D19C
:101E10009DF82800804513D09DF8280000909DF87B
:101E20002C3047A2142104A8FFF72CFC022304AA9B
:101E300000210620FFF772F89DF82C709DF828808D
:101E40000B4800780949097888420ED10848407843
:101E500006494978884208D105488078034989783D
:101E6000884202D100202349086033E604000020A4
:101E700000000020000C0140253032643A25303249
:101E8000643A25303264202020000000253032647E
:101E90003A253032643A2530326420504D0000003B
:101EA000253032643A253032643A2530326420419C
:101EB0004D00000053455420253032643A2530321D
:101EC000643A25303264202020256400416C617220
:101ED0006D3A20253032643A253032643A2530326A
:101EE00064200000253032643A253032643A2530CF
:101EF0003264000084012142253032642D253032C5
:101F0000642D2530326400003D0100203C0100209A
:101F1000253032642D25303264000000740000202A
:101F20003E01002025730000416C61726D3A20254E
:101F30003032643A253032643A2530326400000091
:101F40005744203D2025326420205344203D202545
:101F500032640000FFFFFFFFFFFFFFFF6179FFFF1B
:101F6000FFFDFDF9FFFFD703D507D1D7FF31016D85
:101F70009BFFF32DC3936D9F9F636D119FFFFFFF29
:101F8000F9FFFFFFFFFFFF837DFFFE7D83FFFFFF64
:101F9000EBEBE3F7EBEBEFEFC7EFEFEFFF7FFFFFCD
:101FA000FFFFEFEFEFEFEFEFFF7FFFFFFFFF7FBFE1
:101FB000CFF7F9FFC7B97D7D83FFFFFBFB01FFFF73
:101FC000FB3D1D6D71FFFF396D6D81FFDFAFB7BB4D
:101FD00001FFAF7175758DFFDF27736D2F9FFFFDBB
:101FE0001DE5F9FD9B656D6D01FFF3ED1DCDE3FF73
:101FF000FFFF6FFFFFFFFFFF6F7FFFFFEFEFD7BB1D
:102000007DFFDFD7D7D7D7DFFF7DBBD7EFEFFFF956
:102010005DEDF1FF834D3541D9E77F8FD1D18F7FC2
:10202000FF016D6D01DFCF837D7D91D7FF017D7D48
:1020300083FFFF016D6D6DFFFF01EDEDEDFFCF83C0
:102040007D6D09FFFF01EFEF01FFFFFF01FFFFFFC4
:10205000FF1F7F7F81FFFF01E7CB3D7FFF017F7F78
:102060007FFF01F18F8781FF0101E79F01FFC79982
:102070007D7D81EFFF01EDEDE1F7C7997D1D01EF5A
:10208000FF01EDCD21FFFF316D6D19FFFFFD01FD5A
:10209000FDFFFF017F7F01FFFDE31F1FE1FDE11F4A
:1020A000E1C307F97FB9C7C339FFFDFB07E7F9FFB4
:1020B0007F3D4D7579FFFFFF00FEFEFFFFF9E79FB3
:1020C0007FFFFFFEFE00FFFFFFFDFEFEFDFFFFFFA7
:1020D000FFFFFFFFFFFFFEFDFFFFFF0F57570FFF43
:1020E000FF0177778FFFDFAF7777AFFFDF2F77774E
:1020F00001FFDF8F57578FFFFFF703F5F5FFFF0F46
:10210000375767F7FF01EFF70FFFFFFF05FDFFFFF1
:10211000FFFFFF05FDFFFF01DF8F37FFFFFF01FF1F
:10212000FFFF07EF07EFF70FFF07EFF70FFFDFAF37
:1021300077778FFFFF0777778FFFDF2F777707FF9F
:10214000FF07EFEFF7FFFF0F57572FFFF7F7037763
:1021500077FFFF077F7F07FFF7CF3F1FE7FFC73FEF
:10216000C78F0FF7FF679F8F77FFF7CF3F1FE7FFFF
:10217000FF37576767FFFFFFFF00FEFFFFFF00FF0E
:10218000FFFFFFFE01FFFFFFFFFEFEFEFEFFFFFF62
:10219000FFFFFFFFFFFFFFFFFFFFFFFFFFFF00004D
:1021A0000000FFFFFF01FFFFFFFFFFFFFFCCFFFF6E
:1021B000FFFF00000000FFF7F9FCF7F9FCFFFFFF4D
:1021C000FFFFFFFFFFFF00000000FFDFDF03DFDF97
:1021D00003DFFFFBC0FBFBC0FBFB00000000FFCFE9
:1021E000B77B017BFBE7FFE3DFDF00DFEEF1000001
:1021F000000007FBFB073F4F73FFFFCEF2FCE0DF61
:10220000DFE000000000FF077BBBC77F7F7FF0EFB0
:10221000DED9E7E7D8DF00000000FFECF0FFFFFFAA
:10222000FFFFFFFFFFFFFFFFFFFF00000000FFFFBA
:10223000FFFF1FE7F9FEFFFFFFFFF8E79F7F0000AA
:102240000000FFFEF9E71FFFFFFFFF7F9FE7F8FF9A
:10225000FFFF00000000FFDFBFBF07BFBFDFFFFDC4
:10226000FEFEF0FEFEFD000000007F7F7F7F077F07
:102270007F7FFFFFFFFFF0FFFFFF00000000FFFF79
:10228000FFFFFFFFFFFFFFCF0FFFFFFFFFFF00007C
:102290000000FF7F7F7F7F7F7F7FFFFFFFFFFFFFCC
:1022A000FFFF00000000FFFFFFFFFFFFFFFFFFCF6A
:1022B000CFFFFFFFFFFF00000000FFFFFFFF3FCF4A
:1022C000F1FEFF9FE7F9FEFFFFFF00000000FF1F88
:1022D000E7FBFBFBE71FFFF8E7DFDFDFE7F80000C6
:1022E0000000FFFFF7F703FFFFFFFFFFDFDFC0DFA7
:1022F000DFFF00000000FFCFF7FBFBFB778FFFCF76
:10230000D7DBDDDEDFC700000000FFE7FB7B7B7B68
:10231000B7CFFFE7DFDFDFDFEEF100000000FFFFF8
:102320007F9FEF03FFFFFFF9FADBDBC0DBDB000081
:102330000000FFFF03BBBBBB7BFBFFE3DFDFDFDF97
:10234000EFF000000000FF1F67BBBBBB77FFFFF093
:10235000EFDFDFDFEFF000000000FFE3FBFB7B9B24
:10236000E3FBFFFFFFC1FEFFFFFF00000000FFCF08
:10237000B77B7B7BB7CFFFF1EEDFDFDFEEF1000055
:102380000000FF0FF7FBFBFBF70FFFFFEEDDDDDDCE
:10239000E6F800000000FFFFFF9F9FFFFFFFFFFF29
:1023A000FFCFCFFFFFFF00000000FFFFFFFFBFBF19
:1023B000FFFFFFFFFFFF5F9FFFFF00000000FFFF29
:1023C0007FBFDFEFF7FBFFFFFEFDFBF7EFDF000056
:1023D0000000FFDFDFDFDFDFDFDFFFFDFDFDFDFDF5
:1023E000FDFD00000000FFFBF7EFDFBF7FFFFFDF19
:1023F000EFF7FBFDFEFF00000000FF8FB7FBFBFBCC
:10240000778FFFFFFFCFC8FEFFFF000000001FEF28
:1024100077BBDB1BF70FF8E7DCDBDCDBEDF600005E
:102420000000FFFF7F8FF38F7FFFDFC7D8FDFDFD2B
:10243000D8C700000000FB037B7B7B3BC7FFDFC0EE
:10244000DFDFDFDFEEF1000000001FEFF7FBFBFB3B
:10245000F7E3F8E7DFDFDFDFEFF300000000FB0367
:10246000FBFBFBF7EF1FDFC0DFDFDFEFF7F800005C
:102470000000FB037B7B7B1BF3EFDFC0DFDFDFDCD8
:10248000CFF700000000FB037B7B7B1BF3EFDFC07B
:10249000DFFFFFFCFFFF000000001FEFF7FBFBFB6F
:1024A000F7E3F8E7DFDFDFDFDDE100000000FB033B
:1024B0007B7F7F7B03FBDFC0DFFFFFDFC0DF000030
:1024C0000000FFFFFBFB03FBFBFFFFFFDFDFC0DFC5
:1024D000DFFF00000000FFFFFFFBFB03FBFB3F7F74
:1024E0007F7FBFC0FFFF00000000FB037B3FDFEBEF
:1024F000F3FBDFC0DFFFFCD3CFDF00000000FB03F6
:10250000FBFFFFFFFFFFDFC0DFDFDFDFDFE70000F4
:102510000000FB03C33FFF3FC303DFC0DFFCC3FC7E
:10252000DFC000000000FB03E31FFFFB03FBDFC075
:10253000DFFFFCE3C0FF000000001FE7FBFBFBFB2D
:10254000E71FF8E7DFDFDFDFE7F800000000FB034D
:102550007B7B7B7B7B87DFC0DFFFFFFFFFFF000014
:1025600000001FE7FBFBFBFBE71FF8E7DBDBD78F78
:102570006FB000000000FB037B7B7B7B87FFDFC02D
:10258000DFFFFCF3CFDF00000000FFCFB77B7BFB5A
:10259000F7E3FFC3EFDFDFDEEEF100000000FFE353
:1025A000FBFB03FBFBE3FFFFFFDFC0DFFFFF0000E0
:1025B0000000FB03FBFFFFFB03FBFFE0DFDFDFDFD0
:1025C000E0FF00000000FBE31BFFFFFF1BE3FFFF3A
:1025D000FFF0CFF0FFFF00000000FB03FF7B837BD9
:1025E000FF03FFFCC3FCFFFCC3FC00000000FBF387
:1025F000CB3F3FCBF3FBDFCFD3FCFCD3CFDF0000DF
:102600000000FBF3CB3FFF3FCBF3FFFFFFDFC0DF5B
:10261000FFFF00000000EFF3FBFB3BDBE3FBDFC74A
:10262000DBDCDFDFCFF700000000FFFFFFFF00FE75
:10263000FEFEFFFFFFFF80BFBFBF00000000FFFDE9
:10264000E39F7FFFFFFFFFFFFFFFFCF38F7F000093
:102650000000FFFEFEFE00FFFFFFFFBFBFBF80FFC9
:10266000FFFF00000000FFFFFDFEFEFEFDFFFFFF7D
:10267000FFFFFFFFFFFF00000000FFFFFFFFFFFF66
:10268000FFFF7F7F7F7F7F7F7F7F00000000FFFF56
:10269000FFFFFEFFFFFFFFFFFFFFFFFFFFFF000049
:1026A0000000FF7FBFBFBFBF7FFFFFE7DBDDDDEDCA
:1026B000C0DF00000000FB037FBFBFBF7FFFFFC084
:1026C000EFDFDFDFEFF000000000FFFF7FBFBFBFE5
:1026D000BF7FFFF0EFDFDFDFDFEE00000000FFFF76
:1026E0007FBFBFBF7B03FFF0EFDFDFDFEFC0000086
:1026F0000000FFFF7FBFBFBF7FFFFFF0EDDDDDDD2F
:10270000DDEC00000000FFBFBF07BBBBBBF7FFDF76
:10271000DFC0DFDFFFFF00000000FF7FBFBFBFBFE4
:102720003FBFFF9C636B6B6B6C9F00000000FB0363
:102730007FBFBFBFBF7FDFC0DFFFFFFFDFC0000085
:102740000000FFFFBFB333FFFFFFFFFFDFDFC0DF8E
:10275000DFFF00000000FFFFFFFFBFB333FFFFFFFD
:102760003F7F7F7F80FF00000000FB03FFFFBF3F34
:10277000BFFFDFC0DBFDFAD7CFDF00000000FFFFA7
:10278000FBFB01FFFFFFFFFFDFDFC0DFDFFF00001C
:102790000000BF3FBFBF3FBFBF7FDFC0DFFFC0DF65
:1027A000FFC000000000BF3F7FBFBFBFBF7FDFC0D3
:1027B000DFFFFFFFDFC000000000FFFF7FBFBFBFE4
:1027C0007FFFFFF0EFDFDFDFEFF000000000BF3F33
:1027D0007FBFBFBF7FFF7F006FDFDFDFEFF0000055
:1027E0000000FFFF7FBFBFBF7F3FFFF0EFDFDFDFF6
:1027F0006F0000000000BFBF3FFF7FBFBF3FDFDFB4
:10280000C0DEDFFFFFFF00000000FF7FBFBFBFBFD4
:10281000BF3FFFCEDDDDDDDBDBE700000000FFBFFB
:10282000BF07BFBFBFFFFFFFFFE0DFDFDFEF00003D
:102830000000BF3FFFFFFFFFBF3FFFE0DFDFDFDF45
:10284000EFC000000000FFBF3FBFFFBF3FBFFFFF63
:10285000FEF9C7F9FEFF00000000BF3FFFBF3FBF0A
:10286000FF3FFFF8C7F3FCF3C7F800000000FFBF0D
:102870003FBFFFBF3FBFFFDFCFD6F9D6CFDF00009E
:102880000000FFBF3FBFFFBF3FBFFF7F7EB9C7F95B
:10289000FEFF00000000FF3FBFBFBFBF3FBFFFDE26
:1028A000CFD7D9DEDFC700000000FFFFFF7F7F81A9
:1028B000FEFEFFFFFFFFFFC0BFBF00000000FFFFE5
:1028C000FFFF00FFFFFFFFFFFFFF00FFFFFF000014
:1028D0000000FFFEFE817F7FFFFFFFBFBFC0FFFF45
:1028E000FFFF00000000FFFEFFFFFEFDFDFEFFFFFB
:1028F000FFFFFFFFFFFF00000000FF3F0FC7F7FBD8
:10290000FBF7E70F3FFF03007CFFFFFFFFFFFF0028
:1029100000C3FFF8E0CFDFBFBFDFCFE0F8FFFFFF6E
:10292000EFEFEF0703FFFFFFFFFFFFFFFFFFFF00DA
:1029300000FFFFFFFFFFFFFFBFBFBF80809FBFBF44
:10294000FFFFFF0F07F7FBFBFBF3F7071FFFFFFE80
:10295000FEFFFF7F9FCFE3F0FCFF9F879B9D9E9F25
:102960009F9F9F8F83FFFF0F07F7FBFBFBF7C70FAF
:10297000FFFFFFFFFFFFF7F7F7EBC81C3FFFFFE18B
:10298000C1DFBFBFBFDFCFE0F0FFFFFFFFFFFF3FB3
:10299000DF0703FFFFFF7F9FE7FBFCFFFF0000FF58
:1029A000FFFFFFFEFEFEBEBEBE80809EBEBFFFFFDD
:1029B00003F3F3F3F3F3F3F3F3FFFFE3ECF7FBFBC2
:1029C000FBFBF3070FFFFFE1C1DFBFBFBF9FCFE0FE
:1029D000F0FFFF3F1FEFF7FBFBFBC3C7CFFF030079
:1029E000DCE7F3FBFBFBF3C70F7FFFF0E1CFDFBFBB
:1029F000BFBFDFC7F0FEFF87E3F3F3F3F3F3739397
:102A0000E3FFFFFFFFFFFF1F07F1FEFFFFFFFFFFD9
:102A1000FFFF8180FFFFFFFFFFFFFF0FE7F7FBFBDB
:102A2000FBFBF7C71FFFFF3C98E1F3E7E7C78B18F5
:102A30003EFFF8E0CFDFBFBFBFBFDFC6F0FF3F0FF5
:102A4000C7F7FBFBFBF7E70F3FFFF0C0CF9FBFBF10
:102A5000BFDFEF0000FFFFE7C79FBFBFDFCFE3F09F
:102A6000FCFFFFFFFFFFFFFFFFFFFFFFFFFFFFFF79
:102A7000FFFFFFFFFFFFFFFFFFFFFFFFFFFF8F8F46
:102A80008FFFFFFFFFFFFFFFFF1FFFFFFF00FFFFA5
:102A9000FFDFBF7FFFFFF7FBFCFFFFBF7F80FFFF74
:102AA000FFFFFFFEF1FFEFF3BBABAB03AAA9AB0344
:102AB000ABABBBEBF3FFEEEEF6FAFCDEDABAB66ECA
:102AC000FCFAF6EEEEFFDFDFDFDFDFDFDF00DFDF68
:102AD000DFDFDFDFDFFF7F7FBFDFEFF3FCFFFCF334
:102AE000EFDFBF7F7FFFEFF3BBABAB03AAA9AB0365
:102AF000ABABBBEBF3FFEEEEF6FAFCDEDABAB66E8A
:102B0000FCFAF6EEEEFFFFEFEF6FEFEFEEE9EFEF1F
:102B1000EF2FEFEFFFFFBFBFBFBFBCA3BFBFAFB380
:102B2000BCBFBFBFBFFFBFBBABAB2BAB8BA0ABABC7
:102B30002BABABBBBFFFFBFBFDFE016D6D6D6D6D88
:102B400001FEFDFBFBFFFD1DDDDDDDDDDD01DDDD6E
:102B5000DDDDDD1DFDFFFF00FFFFF6EDFF80FFF671
:102B6000EDBF7F80FFFFFFDFDFDF5F9FFF009F7F05
:102B7000BFDFE7FFFFFFDFEFF7F9FEBF7F80FFFE5C
:102B8000FDFBF7EFEFFFFF1FFF00EFDFFB1BDBDAC3
:102B9000D9DBDB1BFBFFFEFFFF00FFDFEFF2BE7E9A
:102BA00080FEFAF6CFFFDB5BDB00EBFF7BABC0BB4D
:102BB000FB837F1FFFFFFFBF3EA1ADACAD80ADAD7E
:102BC000ADA19F3EFFFFBFBBABAB2BAB8BA0ABABB5
:102BD0002BABABBBBFFFFBFBFDFE016D6D6D6D6DE8
:102BE00001FEFDFBFBFF7FBFDF6F77797F7F7F7C7F
:102BF00073EFDFBF7FFFFF7FBFDFE7F8FFBF7FBF60
:102C0000C0FFFFFFFFFFEF9FFD73FFBBABABAB80D0
:102C1000ABABABBBBFFFFBFB81FEFFFF00EAEAEA09
:102C2000AA6A80FFFFFFFF03BBBBBB03FFFF01DD01
:102C3000DDDDDD01FFFFFFF0FBFBFB70BFCFF0FD33
:102C4000FDBD7D80FFFFFFEF777BBCDFEFF3EFDFA4
:102C5000BE7D7BF7FFFFFEFEFF01BDBDBDBDBDBD5F
:102C6000BD01FFFEFEFFFD1DDDDDDDDDDD01DDDD86
:102C7000DDDDDD1DFDFFFF00FFFFF6EDFF80FFF650
:102C8000EDBF7F80FFFFFFEFEF6FEFEFEEE9EFEFBC
:102C9000EF2FEFEFFFFFBFBFBFBFBCA3BFBFAFB3FF
:102CA000BCBFBFBFBFFFFFFEFE02AAAAA8AAAAAA76
:102CB000AA02FEFEFFFF7F6F77BAB0AADADADAAABD
:102CC000B2BA7F7F7FFFFFFEFE02AAAAA8AAAAAA25
:102CD000AA02FEFEFFFF7F6F77BAB0AADADADAAA9D
:102CE000B2BA7F7F7FFFEF9FFD73FFDBDBD01BDB83
:102CF000DB1BD0DBDBFFFBFB81FEFF00EEF6F8E623
:102D0000F6F8B66E80FF7B7B7B7B607B5B3B7B7BDF
:102D1000607B7B7B7BFFFFFFFFFF80BFBFBFBFBF31
:102D2000BFBFBFBFFFFFDBDB5B01DCDDFF0FEFEFF2
:102D300000EFEF0FFFFFF7F9FE00FEF9FFF8FDFDD2
:102D400000FDFDF8FFFFFFFEFE02AAAAA8AAAAAA9C
:102D5000AA02FEFEFFFF7F6F77BAB0AADADADAAA1C
:102D6000B2BA7F7F7FFFFFFDBD9DADB5B9BDBDBDD3
:102D7000AD9D3DFDFFFFBFBFBBBBBBBBBB80BBBBB6
:102D8000BBBBBBBFBFFFFFFFFF1FFFFFFF00FFFF7E
:102D9000FFDFBF7FFFFFF7FBFCFFFFBF7F80FFFF71
:102DA000FFFFFFFEF1FFFFFFFFA0AAAA0AAAAAAA3F
:102DB0006AA0FFFFFFFFEEEEF6F602AAA8A8AAAAF5
:102DC000AA02FEFEFEFFDFDFDFDFDFDFDF00DFDF87
:102DD000DFDFDFDFDFFF7F7FBFDFEFF3FCFFFCF331
:102DE000EFDFBF7F7FFFFFFFFFA0AAAA0AAAAAAA60
:102DF0006AA0FFFFFFFFEEEEF6F602AAA8A8AAAAB5
:102E0000AA02FEFEFEFFFFEFEF6FEFEFEEE9EFEF3E
:102E1000EF2FEFEFFFFFBFBFBFBFBCA3BFBFAFB37D
:102E2000BCBFBFBFBFFFDBDB5B01DCDD7F8FFF0013
:102E3000FF7FBFCFFFFFF7F9FE00FE79BFCFF1FEA6
:102E4000F9E7DFBF7FFFFF7F9F60F7F707FFFF0016
:102E5000EFDFBF7FFFFF7EBFDFECF3ECDFDFBFA064
:102E6000BFBFBFBEBFFFFFFFFFA0AAAA0AAAAAAAB0
:102E70006AA0FFFFFFFFEEEEF6F602AAA8A8AAAA34
:102E8000AA02FEFEFEFFFFFF07F7F7F3F5F6F7F7DE
:102E9000F7F707FFFFFFFFFF00BEBEBEBEBEBEBE10
:102EA000BEBE00FFFFFFEFF3FAAAAAAAFA80FA2A31
:102EB000AAAAFAEBF3FF7F087A82AAA8FFF51654B4
:102EC0005A5A14F7F7FFDBDB5B01DCDD7F8FFF0075
:102ED000FF7FBFCFFFFFF7F9FE00FE79BFCFF1FE06
:102EE000F9E7DFBF7FFF7FBFDF6F77797F7F7F7C71
:102EF00073EFDFBF7FFFFF7FBFDFE7F8FFBF7FBF5D
:102F0000C0FFFFFFFFFFEFF3BBABAB03AAA9AB030F
:102F1000ABABBBEBF3FFEEEEF6FAFCDEDABAB66E65
:102F2000FCFAF6EEEEFFEFF3FAAAAAAAFA80FA2A62
:102F3000AAAAFAEBF3FF7F087A82AAA8FFF5165433
:102F40005A5A14F7F7FFEFF3FAAAAAAAFA80FAAAD4
:102F5000AAAAFAEBF3FFDFEDF5F900F5EDFF00AA01
:102F6000AAAAAA00FFFFFF01FDDD25796FB7A8DB44
:102F70005BABB37B7FFFFF00F7EFF7F8E7EDEDED1D
:102F800000EDEDEDEFFFFFEFEF6FEFEFEEE9EFEFAD
:102F9000EF2FEFEFFFFFBFBFBFBFBCA3BFBFAFB3FC
:102FA000BCBFBFBFBFFFFFDFEFF76B58BBBBBB5B57
:102FB0006BF3FFFFFFFFFDFDFEFEDFDBDBBBB77743
:102FC000EFFEFEFDFDFFFFFFFF1FFFFFFF00FFFF06
:102FD000FFDFBF7FFFFFF7FBFCFFFFBF7F80FFFF2F
:102FE000FFFFFFFEF1FFEFF3FAAAAAAAFA80FAAAFE
:102FF000AAAAFAEBF3FFFFFFBEB6B6B6B6B6B6B6F0
:10300000B6B600FFFFFFDFDFDFDFDFDFDF00DFDF80
:10301000DFDFDFDFDFFF7F7FBFDFEFF3FCFFFCF3EE
:10302000EFDFBF7F7FFFEFF3FAAAAAAAFA80FAAA1E
:10303000AAAAFAEBF3FFFFFFBEB6B6B6B6B6B6B6AF
:10304000B6B600FFFFFFFFDFEFF76B58BBBBBB5B04
:103050006BF3FFFFFFFFFDFDFEFEDFDBDBBBB777A2
:10306000EFFEFEFDFDFFFFFDBD9DADB5B9BDBDBDD4
:10307000AD9D3DFDFFFFBFBFBBBBBBBBBB80BBBBB3
:10308000BBBBBBBFBFFFFFEF09AFB3B903BBDBFFE8
:10309000FFFFFCFEFFFFF8FFFFFFFFCF0977565948
:1030A00003547BFFFFF8FFFFFFFFFCFFFFFFEFB7BD
:1030B00008AB6F318AB33BFFFFFFFCFEFFF8FBFB61
:1030C000F8FFFFFF0DFDFD01DDDDDDFFFFFFFCFD76
:1030D000FDFCFDFDFDFF7FBB1BC3D803DBDBDBFF7E
:1030E000FFFFF8FDFDFCFDFDFDFFFFFF032BAAAD7B
:1030F000AB23FFFFFFFCFFF8FDFDFDFCFFFFFF2FF3
:10310000CBAB6FF700F707FFFFFEFEFEFAFCFFFBFD
:10311000FCFFFFFF075B005B5B07FFFFFFFFFFFF9D
:10312000FCFBFBFBF9FFFFDFDFDDDD05D9DDEDFF9C
:10313000FFFFFFFFFBFCFFFFFFFFFF3F01D5ADAD32
:10314000019DA5BFFEFFF8FFFFFFF8FFFFFFF70798
:103150007887C7F300B7B7FFFFFBFCFEFDFBFCFB66
:10316000FBFFFFFF6733AD9BA3BB7FFFFFFEFFF8B5
:10317000FBFBFBFBFCFFFF03DB03E797F701F7FF1C
:10318000FFFEFEFEFFFFFBFCFFFFFF03F907D5D5A7
:1031900005FD01FFFFF8FFFEFEFEFFFBF8FFF76FE6
:1031A0008DCD2D45414B0DFFFFF8FFFFFCFEFEFAD4
:1031B000FDFF7F73A325015D25A27BFFFFFFFFFFBE
:1031C000FDF9FEFFFFFFFFFF87A907ABA8837FFF85
:1031D000FFFEFEFEFCFEFEFEFFFFBFCF01F7977570
:1031E000FB07FBFFFFFFF8FBFBFBFCFBFBFFFFFF0D
:1031F000FFFFFFFFFFFFFFFFFFFFFFFFFFFFFFFFDF
:10320000FFFFFFFFFFFFFFFFFFFFFFFFFFFFFFFFCE
:10321000FFFFFFFFFFFFFFFFFFFFFFFFFFFFFFFFBE
:10322000FFFFFFFFFFFFFFFFFF7F7F7FBFBFBF9F4E
:10323000DFDFDFDFDFCFEFEFEFEFEFEFEFEFEFEF0E
:10324000EFEFEFCF87B7B7B737777767EFEFCFDF1E
:10325000DFDFDFDFDFDFDF9FBF3F7FFFFFFFFFFF3E
:10326000FFFFFFFFFFFFFFFFFFFFFFFFFFFFFFFF6E
:10327000FFFFFFFFFFFFFFFFFFFFFFFFFFFFFFFF5E
:10328000FFFFFFFFFFFFFFFFFFFFFFFFFFFFFFFF4E
:10329000FFFFFFFFFFFF7F3FBF9FCFE7F3FBF9FD7E
:1032A000FDFDFDE1C18D3C7E7EFFFFFFFFFFFFFFC7
:1032B000FFFFFFFFFFFFFFFFFFFFFFFFFFFFFFFF1E
:1032C000FFFFFFFFFFFFFFFFFFFFFFFEFCF9F9F32A
:1032D000E7EFEFCFDFDFDF8F0F6FE0F0FFFFFFFFE4
:1032E000FFFFFFFFFFFFFFFFFFFFFFFFFFFFFFFFEE
:1032F000FFFFFFFFFFFFFFFFFFFFFFFFFFFFFFFFDE
:10330000FFFFFFFFFFFFFFFFFFFF7F7F7F3FBF9FAD
:103310009FDFDFC1C09EBEBF3F3F7F7F7F7F7FFFBC
:10332000FFFFFFFFFFFFFFFEFCF82107FFFFFFFF8E
:10333000FFFFFFFFFFFFFFFFFFFFFFFFFFFFFFFF9D
:10334000FFFFFFFFFFFFFFFFFFFFFFFFFFFFFFFF8D
:10335000FFFFFF8F0F270707270E8CF9F3E7CF9F9B
:103360003F7FFFFFFFFFFFFFFFFFFFFFFFFFFFFFAD
:10337000FFFFFFFFBF3F3F3F3F3F7F7F7F7FFFFF5D
:10338000FF3F1FCFE7F3F9FDFCFEFEFFFFFFFFFF4E
:10339000FFFFFFFFFFFFFFFF80007FFFFFFFFEFE3D
:1033A000FEFCFCFDFDFDFDFDFCFEFEFFFFFFFFFF43
:1033B000FFFFFFFFFFFFFF8F277717072727878F65
:1033C000FFFFFFFFFF3F1FCFE7F7F37B797DFDFD99
:1033D000FDFDFCFCFCCC84A5AD8DD9F3E7071F7F78
:1033E0007FFE7C0183FFFFFFFFFFFFFFFFFFFFFF6B
:1033F000FFFFFFFFFFFFFEFCF8F8F0F3F0F0F30132
:1034000000FCFFFFFFFFFFFFFFFFFFFFFFFFFFFFCE
:10341000FFFFFFFFFFFFFFFFFFFCF0E38F9F3F7FFA
:10342000FFFFFFFFFFFFFFFFFFFFFFFFFFFFFFFFAC
:10343000FFFFFFFFFFFFFFFFFFFFFFFF7F3F3FBFDC
:10344000FFFFFFFFFDE0C7DF9F9F9C1819580CAFDF
:10345000A797D3EB6B6B632131B191D1D0C8E0E674
:10346000F2F9FCFEFFFFFFFFFFFFFFFFFFFFFFFF83
:10347000FFFFFFFFFFFFFFFFFFFFFFFFFFFFFFFE5D
:10348000F0C38F3F7FFFFFFFFFFFFFFFFFFFFFFF47
:10349000FFFFFFFFFFFFFFFFFFFFFFFFFFFFFFFE3D
:1034A000FEFCFDFBFBF3F7F7E7EFEFEFEFCFCFDF2E
:1034B000DFDFDFDFDFDFDFDFDFDFDFDEDCDECECE43
:1034C000EEEEEEEEEE666636B6F6F2FAFBF9F9FDD2
:1034D000FDFCFEFEFEFF0E00FFFFFFFFFFFFFFFFF4
:1034E000FFFFFFFFFFFFFFFFFFFFFFFFFFFFFFFFEC
:1034F000FFFFFFFFFFFFFFFFFFFFFFFFFFFFFFFFDC
:10350000FFFFFFFFFEFCF9F3F7E7CFDF9E3C3D39FD
:103510003B93D7474F4F4F0F1F9FDFDFDFDFDFDFCB
:10352000DFDFDBC3C7CF9F3F7FFFFFFFFFFFFFFF53
:10353000FFFFFFFFFFFFFFFFFFFF7F1F81E1FBFB9F
:10354000F9F9F9F0E6C69F3F3FBFBFBF3F1F1F9F7E
:10355000DF1F1F8FC7F0FCFFFFFFFFFFFFFFFFFF15
:10356000FFFFFFFFFFFFFFFFFFFFFFFFFFFFFFFF6B
:10357000FFFFFFFFFFFFFFFFFFFFFFFFFFFFFFFF5B
:10358000FFFFFFFFFFFFFFFFFFFFFFFFFFFFFFFE4C
:10359000FEFEFEFEFFFFFFFFFFFFFFFFFFFFFFFF3F
:1035A000FFFFFFFFFFFFFFFFFEFCF9F9F3F3E3EB83
:1035B000EBE3E1F1E1E5F5F1F1F9FCFEFFFFFFFFDF
:1035C000FFFFFFFFFFFFFFFFFEFEFEFEFEFEFEFE13
:1035D000FEFEFFFFFFFFFFFFFFFFFFFFFFFFFFFFFD
:1035E000FFFFFFFFFFFFFFFFFFFFFFFFFFFF04AE37
:1035F000530A57485526BD0D26500D954446AAB985
:10360000056A4D09AD4224AEB604AE4A6A4DBE0A03
:103610004D520D25465D52BA0B544E0D6A43296D2D
:1036200037095B4B749BC10497540A4B485B25BC1C
:1036300006A55006D4454ADAB802B64D09574224C9
:1036400097B704974A664B3E0D4A510EA54656D48D
:10365000BA05AD4E02B644393738092E4B7C96BFB9
:103660000C95530D4A486DA53B0B554F056A454ACD
:10367000ADB9025D4D092D422C95B60A954A7B4A9B
:10368000BD06CA510B5546555ABB04DA4E0A5B4378
:10369000352BB8052B4C8A953F0E955206AA487AD1
:1036A000D53C0AB54F04B6454A57390A574D052649
:1036B000423E93350D954975AABE056A51096D467E
:1036C00054AEBB04AD4F0A4D434D26B70D254B8D6F
:1036D00052BF0B54520B6A47696D3C095B50049B07
:1036E000454A4BB90A4B4DAB25C206A55406D449F1
:1036F0006ADA3D0AB6510937465497BB04974F061C
:103700004B4436A5370EA54A86B2BF05AC530AB660
:10371000475936BC092E500C96454D4AB80D4A4CB7
:103720000DA54125AAB6056A497AADBD025D5209CB
:103730002D475C95BA0A954E0B4A434B55370AD52F
:103740004A955ABF04BA530A5B48652BBC052B50F7
:103750000A9345474AB906AA4C0AD54124DAB60469
:10376000B64A69573D0A4E510D26465E933A0D53AF
:103770004D05AA4336B537096D4BB4AEBF04AD5302
:103780000A4D486D25BC0D254F0D52445DAA380BDE
:103790005A4C056D4124ADB6049B4A7A4BBE0A4B88
:1037A000510AA5465B52BA06D24E0ADA42355B3759
:1037B00009374B8497C1049753064B4866A53C0EC6
:1037C000A54F06B2444AB6380AAE4C092E423C9781
:1037D000350C96497D4ABD0D4A510DA54555AABAED
:1037E000056A4E0A6D43452EB7052D4B8A95BF0AD3
:1037F00095530B4A476B553B0AD54F055A454A5DD1
:10380000380A5B4C052B423A93B60693497729BD9B
:1038100006AA510AD54654DABA04B64E0A574345A9
:1038200027380D264A8E933E0D52520DAA4766B593
:103830003B056D4F04AE454A4EB90A4D4C0D15413E
:103840002D92B54EA6999CA2988000180010244E87
:10385000A6999CA2988082180010244EA6D99EA2F8
:10386000988082180010044EE6D99EA6A88082187F
:103870000010000FE6D9BEA6988882188000000FBD
:10388000EFD9BEA6998C82988000000FEFDBBEA610
:10389000999CA2988000180FEFDBBEA6999CA29875
:1038A0008000180FEFDBBEA2998CA0988082180BC5
:1038B000EFDBBEA6998CA2988082180FEFDBBEE6E4
:1038C000D99EA2988082180FEFFBBFE6D99EA698DA
:1038D0008082180FFFFFFCEFD9BEA6180000000081
:1038E0000000000614041306150514061506150736
:1038F0001708170817081808160716001F3B5A78EC
:1039000097B5D4F3110130014E0100030306010401
:103910000602050003051F1C1F1E1F1E1F1F1E1F62
:103920001E1F0000B6A10000BAA50000D8A5000027
:10393000D0A1D1A900000000B4F3D1A9000000007B
:10394000C1A2B6AC00000000B6AC0000D0A1BAAE77
:1039500000000000B4F3BAAE00000000C3AE0000E7
:10396000CAAE0000D3EACBAE00000000C0B0000039
:10397000CEB40000CBAABDB500000000BAAEC2B6FE
:1039800000000000B0D7C2B600000000C1A2B4BA67
:1039900000000000BCBA0000D2BB0000B3BD0000B4
:1039A000D0C10000B6ACD6C100000000CFC4D6C163
:1039B00000000000CBC40000C1A2CFC40000000082
:1039C000BEC50000CBC80000C8C90000B0CB0000D5
:1039D000D3CF0000D2D20000D7D30000B4BAB7D6FC
:1039E00000000000C7EFB7D600000000C3A2D6D683
:1039F00000000000BCD70000BEAAD5DD000000001A
:103A0000C6DF0000CEE50000CEE70000D0E70000F2
:103A1000C9EA0000B9C8D3EA00000000CEEC0000FB
:103A2000D0A1CAEE00000000B4A6CAEE000000005B
:103A3000B4F3CAEE00000000B9EF0000C1A2C7EF66
:103A400000000000B3F30000B3F50000C7E5C3F7C2
:103A500000000000C1F90000CFC4C2FA000000005D
:103A6000D2FA0000B1FB0000B8FD0000C8FD000064
:103A7000B6FE0000943A000800000020400100005B
:103A800074010008883B0008400100200004000089
:103A9000C4160008A2081009201701012359550275
:103AA000134C391B0854041A8C041A64041AF804C1
:103AB0001ADC04134C3A1B0814041AB80C1A5808E0
:103AC0001AEC081AAC041A200C1A30041A3C041A16
:103AD00028041A84141AE4041A7C041A74041A4080
:103AE000041A30041A38041AA4041118310102030C
:103AF0000405060708090A0B0C0D0E0F101112130E
:103B00001415161718191A1B1C1D1E1F20212223FD
:103B10002425262728292A2B2C2D2E2FF4342AD48D
:103B20008C195C1A24081A1C081A94081A68081AB6
:103B3000A0082AC85C190C1AD8081A44081A60048C
:103B40001A5C0C1A9C041AC4041A08101A70081A79
:103B500010081AD0082A0CA819081A98041A700C10
:103B60001A6C041AB40C1A04081A54041119041A11
:103B7000CC101AC0041A60041A48042A6C08295C84
:083B800019082A2C1029283134
:04000005080000ED02
:00000001FF
