:020000040800F2
:10000000081100209D010008A1010008A3010008BB
:10001000A5010008A7010008A901000800000000D0
:10002000000000000000000000000000AB0100081C
:10003000AD01000800000000AF010008B101000898
:10004000B3010008B3010008B3010008B3010008C0
:10005000B3010008B3010008B3010008B3010008B0
:10006000B3010008B3010008B3010008B3010008A0
:10007000B3010008B3010008B3010008B301000890
:10008000B3010008B3010008B3010008B301000880
:10009000B3010008B3010008B3010008A91E00085D
:1000A000B301000897290008B3010008B301000854
:1000B0001917000801170008B3010008B301000870
:1000C000B3010008B3010008B3010008B301000840
:1000D000B3010008B3010008B301000825180008A7
:1000E000B3010008B3010008B301000800F002F8F2
:1000F00000F03FF80AA090E8000C82448344AAF183
:100100000107DA4501D100F034F8AFF2090EBAE880
:100110000F0013F0010F18BFFB1A43F0010318473B
:100120003860000058600000103A24BF78C878C1D9
:10013000FAD8520724BF30C830C144BF04680C60ED
:10014000704700000023002400250026103A28BF35
:1001500078C1FBD8520728BF30C148BF0B60704739
:10016000642903F0B581002070471FB51FBD10B58D
:1001700010BD03F0D1FA1146FFF7F7FF00F02AF89F
:1001800003F0EFFA03B4FFF7F2FF03BC00F078FAD4
:1001900030BF72B662B680F30888704708480047DF
:1001A000FEE7FEE7FEE7FEE7FEE7FEE7FEE7FEE727
:1001B000FEE7FEE703480449044A054B7047000088
:1001C000ED000008080B002008110020080D002099
:1001D000080D0020092000F0FAF9482000F09AF8F4
:1001E000022000F0DFF9012000F0DCF901F0EAFF65
:1001F00000F0D8FA00F05BFD01F090F901F0EBF9A6
:1002000001F02CFE00BF00F07AFB0028FBD14FF478
:10021000967000F0B7F84FF4FA31482000F05BFA1E
:10022000002141F61F4001F0B9F800F051FE4FF4F3
:100230001651242001F084FA2C480078012804D1BA
:1002400001F0ECFB01F0FCFD0CE0284800780228EE
:1002500002D100F016FF05E024480078032801D100
:1002600000F0B2FF01F049FF41F61F41312001F0DB
:1002700067F839E01D480078012817D1072001F000
:10028000D8FC1B490860082001F0D3FC194908601C
:10029000052001F0CEFC18490860062001F0C9FCD9
:1002A0001649086001F0A2FC15490860154800785D
:1002B000012804D101F058FF0020124908701248AB
:1002C000007820B902F043FE02F0C9FC01E002F020
:1002D00030FF01200D49087000200D49087000BF53
:1002E0000A4800780028FBD1C4E700000000002085
:1002F0005000002054000020580000205C00002026
:10030000600000206900002002000020450000205D
:10031000440000204FF0E021096921F004014FF072
:10032000E0221161C21700EB5272C2F3C702234BE5
:100330001A701946097801EB4102C2EBC1114FF660
:10034000FF7202EAC1011E4A1180704701461B4A32
:1003500012784A434FF0E0235A6100229A61012249
:100360001A6100BF4FF0E022106900F001021AB1DB
:1003700000F48032002AF5D000224FF0E0231A6109
:100380009A61704701460E4A12884A434FF0E023B3
:100390005A6100229A6101221A6100BF4FF0E022E7
:1003A000106900F001021AB100F48032002AF5D081
:1003B00000224FF0E0231A619A6170477C00002010
:1003C0007E000020A34A0A400243A34B1A607047F4
:1003D0000146072323EA010212029F4B1B1D1868E6
:1003E0004FF6FF0318409D4B184310439A4B1B1DBB
:1003F000186070472DE9F0410746884614461D46AF
:100400002846FFF7E5FFC5F1040007FA00F60F20C4
:10041000284100EA0800064306F00F06E21704EB45
:10042000D2625211920002F1E022D2F8002121465C
:10043000E31704EBD3635B11A4EB431C012303FA22
:100440000CF31A432046E31704EBD3635B119B00C4
:1004500003F1E023C3F800218148005D40EA061063
:100460007F490855BDE8F08170B504460B46CE17AC
:1004700001EB9676C6F38700CE1701EB9676B610A1
:10048000A1EB8606B606350E764B9B6943F0010359
:10049000744EB3614FEAB63353F820300F26AE40A6
:1004A000B343714E46F82030334653F8203004FAF7
:1004B00005F61E436C4B43F820606C4B1B6801260D
:1004C0008E403343694E336002F0010343B1674B02
:1004D0000C331B6801268E403343644E0C36336068
:1004E00002F0020343B1614B08331E6801238B40C5
:1004F0001E435E4B08331E6070BD00B50020594995
:100500000861C8601420486100208861C8610846FD
:10051000006840F0010008600846406854490840FF
:100520005049486008460068524908404D490860F3
:100530000846006820F4802008600846406820F4DF
:10054000FE0048600020886000214FF00060FFF747
:1005500039FF00BD10B540480830006840F0040085
:100560003D49083108603F48C06940F080503D492E
:10057000C8614148406840F480703F49486008467F
:10058000006840F0040008600846006840F002007F
:100590000860FFF7FDFD10BD3048001D2E49091D04
:1005A00008607047014649062E4A926942F00102EE
:1005B0002C4B9A612C4A083A526822F0E0622A4B8E
:1005C000083B5A601A4652680A435A60704730B571
:1005D00004460025FFF791FF2248006840F4803070
:1005E0002049086000BF1F480068400C0028FAD06E
:1005F0004FF480601B494860A01EC4B208464068A2
:1006000040EA844048600846406840F480304860D2
:100610001A48006840F03200184908601148006824
:1006200040F080700F49086000BF0E480068400E1F
:100630000028FAD00B48406840F0020009494860A1
:1006400005E008484068C0F3870505F00305022D62
:10065000F7D130BD80FFFF1F08ED00E00000FA0574
:1006600000E400E0001002400800014000040140E6
:100670000000FFF8FFFFF6FE00700040002002407F
:1006800000BF7047414A127852B900BF404A1288F1
:1006900002F04002002AF9D0C2B23D4B1B1D1A8065
:1006A0003A4A1278012A0AD100BF3A4A128802F067
:1006B0004002002AF9D0C2B2364B1B1D1A80704787
:1006C0003449091D088000BF3249098801F0400102
:1006D0000029F9D070472DE9F05F05460E4630013C
:1006E00004F080FD81462C4905FB01F004F07AFD01
:1006F0008246494604F060FC0746384604F03AFD5D
:1007000084B2204604F06EFD8346394604F0AFFE05
:1007100082464FF0834104F0ADFD814604F02AFD8E
:1007200080464FF6FF7000EA041404EB080084B220
:100730001A48806940F004001849886108468069B9
:1007400040F4804088611648006820F47F601449B6
:1007500008600846006840F40B6008600F48C068F5
:1007600040F480400D49C8600846C06820F48040CD
:10077000C860084808300480001D008842F20C015F
:10078000084304490C310880BDE8F09F02000020B6
:10079000004800400038014040420F000010024075
:1007A000040801407848806940F004007649886177
:1007B0007648006820F470007449086008460068B4
:1007C00040F40000086071480C30006840F02000E0
:1007D0006E490C310860704701466D48006828B9C1
:1007E0006C480088401C6B4A108002E00020694A77
:1007F00010806748006828B96748007810B9012060
:10080000654A107065480078B0B9634800780128DF
:1008100007D163480078401C614A107001205F4A8C
:1008200010705F480078022806D100205C4A1070E2
:100830005C4A10800220704755480068012804D1A6
:100840000020554A1070554A10705548007801280C
:100850001CD154480088401C524A10801046008821
:1008600088420ADD4B480088884206DA00204C4A5C
:1008700010704C4A10800120DDE74648008888420D
:1008800004DD0020464A1070464A10800020D2E75E
:100890004548007838B13E48006820B900204249F8
:1008A0000870012070473A480068012801D13E498C
:1008B00008700020F6E73D48008840B934480068D9
:1008C00028B93B480088401C3949088002E00020D4
:1008D0003749088036480088C82807DD0120334999
:1008E0000880002032490880012070472F48008886
:1008F000012802D100202D4908800020F5E770B5BD
:100900004FF4827502F04DFC2A49098808B200288C
:1009100001DB014600E04142274A116010460468AD
:10092000AC4203DC00202549087021E0AC4206DD22
:100930006800A04203DB01202049087018E068002D
:10094000A04207DA05EB4500A04203DB02201B4969
:1009500008700DE005EB4500A04206DAA800A042B1
:1009600003DB03201549087002E0002011490880CC
:1009700013480078012804D100F08CF800201149B8
:1009800008701048007870BD001002400008014057
:10099000140121428A0000208400002085000020EC
:1009A00086000020880000208C000020900000209D
:1009B0008E000020240400401400002000000020CD
:1009C000030000209200002010B50A461AB101234E
:1009D000FE4C236002E00023FC4C2360002114E065
:1009E0000023FB4C236000F080031BB10123241F74
:1009F000236003E00023F64C241F23600123F44C02
:100A000023604306180E4B1CD9B20829E8DB0123EA
:100A1000EE4C236010BD30B500241CE004F1B001A1
:100A2000C8B20021FFF7D0FF00210846FFF7CCFF36
:100A300000211020FFF7C8FF002508E0E54901EB81
:100A4000C501085D0121FFF7BFFF681CC5B2802DFD
:100A5000F4DB601CC4B2082CE0DB30BD00B5002123
:100A60008D20FFF7B1FF00211420FFF7ADFF00211B
:100A7000AF20FFF7A9FF00BD00B500218D20FFF7D3
:100A8000A3FF00211020FFF79FFF0021AE20FFF7FA
:100A90009BFF00BD30B500240CE0002506E00020DF
:100AA000CC4901EBC5010855681CC5B2802DF6DBA9
:100AB000601CC4B2082CF0DBFFF7ADFF30BDF0B511
:100AC000144600267F2801DC3F2900DDF0BD0B46DF
:100AD000CF1701EB5777FF10C7F10707FAB2CF170F
:100AE00001EB5777FF10A1EBC707FDB2C5F1070770
:100AF0000123BB40DEB24CB1B64B03EBC0039B5CA1
:100B00003343B44F07EBC007BB5408E0B14B03EBD2
:100B1000C0039B5CB343AF4F07EBC007BB5400BFA0
:100B2000D4E72DE9F04F80460C4615461E46A346F5
:100B3000A5F12000C5B200273EE00C2E07D105EB41
:100B40004500A54901EB800010F8079004E0A34898
:100B500000EB051010F807904FF0000A26E009F0AE
:100B6000800028B121464046099AFFF7A8FF09E016
:100B7000099808B9012000E00020024621464046BD
:100B8000FFF79DFF4FEA49604FEA1069601CC4B24D
:100B9000A4EB0B00B04205D15C4608F1010000F067
:100BA000FF0806E00AF1010000F0FF0ABAF1080FA1
:100BB000D5DB00BF781CC7B2B742BEDBBDE8F08F03
:100BC00010B50246012000E050430B1EA1F10104C4
:100BD000E1B2F9D110BD2DE9FF4F81B00746914632
:100BE0001E460E9D4FF0000A002439E0301B401EC7
:100BF000C1B20A20FFF7E4FFB9FBF0F00A21B0FB15
:100C0000F1F201FB1208BAF1000F16D1701EA042DA
:100C100013DDB8F1000F0ED10120AB4605EBDB71FF
:100C2000491001FB04710090C8B22B4620220299A2
:100C3000FFF777FF12E04FF0010A0120AB4605EB0A
:100C4000DB71491001FB04710090C8B208F130015A
:100C5000CAB22B460299FFF764FF00BF601CC4B202
:100C6000B442C3DB05B0BDE8F08F78B505460E464B
:100C7000144618E07A2D03DD002506F11000C6B2F7
:100C80003A2E04DD002005460646FFF703FF01204B
:100C9000009022780C2331462846FFF742FF05F1E9
:100CA0000800C5B2641C20780028E3D178BD10B5D7
:100CB0004B48806940F0080049498861494800680C
:100CC00049490840474908600846006847490843C1
:100CD000444908604248806940F004004049886106
:100CE0004348006820F070404149086008460068A9
:100CF00040F0005008600020354908390860642041
:100D0000FFF740FB01203B49C1F88C010021AE20D8
:100D1000FFF75AFE0021D520FFF756FE0021502094
:100D2000FFF752FE0021A820FFF74EFE00213F20D2
:100D3000FFF74AFE0021D320FFF746FE00210846B8
:100D4000FFF742FE00214020FFF73EFE00218D20EC
:100D5000FFF73AFE00211420FFF736FE0021202085
:100D6000FFF732FE00210220FFF72EFE0021A12016
:100D7000FFF72AFE0021C020FFF726FE0021DA201F
:100D8000FFF722FE00211220FFF71EFE0021812026
:100D9000FFF71AFE0021EF20FFF716FE0021D920F1
:100DA000FFF712FE0021F120FFF70EFE0021DB20ED
:100DB000FFF70AFE00213020FFF706FE0021A420E5
:100DC000FFF702FE0021A62016E00000BC01214230
:100DD000948121423C0200205E560008D25A00084D
:100DE00000100240000C0140FF0F00FF0020220015
:100DF0000408014000802142FFF7E6FD0021AF20FA
:100E0000FFF7E2FDFFF746FE10BD0000002000E006
:100E1000401C0A28FCDB70470146FE48006820F0B1
:100E20001F00FC4A10601046006808431060F94833
:100E30002C38006840F48000F64A2C3A106000BF5D
:100E4000F4483438006800F002000028F8D0F14877
:100E50001830006880B2704710B5002300240120CC
:100E6000ED4908600020ED49C1F88C01FFF7CEFF85
:100E70000120E949091D08600020E849C1F88801FE
:100E8000FFF7C4FF0120E44908600020E349C1F8EE
:100E90008C01FFF7BBFF002317E00020DE4908604C
:100EA000FFF7B4FFFFF7B2FF0820FFF7B5FF00110F
:100EB000DB4921F81400601CC4B20120D749C1F8F5
:100EC0008801FFF7A3FF581CC3B2802BE5DB10BDE0
:100ED000D448806940F00800D2498861D24800684F
:100EE00020F00F00D0490860CE48806940F40070BF
:100EF000CC4988610846C06840F40070C860084664
:100F0000C06820F40070C8600846406820F4404083
:100F100048600846406840F400404860BD483038AA
:100F20000068C2490840BB4930390860084600687B
:100F300008600846006820F480700860081D00689A
:100F400020F00200091D08600846006820F46020B7
:100F500008600846006840F46020086008460068A1
:100F600040F4801008600846006820F400600860C3
:100F7000A8480838006820F47000A64908390860BD
:100F80000846006800200860A2482438006820F065
:100F9000F000A049243908600846006840F0380095
:100FA00008609C482C38006840F0010099492C39B1
:100FB00008600846006840F00800086000BF9548D7
:100FC0002C38006800F008000028F8D191482C382F
:100FD000006840F004008F492C39086000BF8D483C
:100FE0002C38006800F004000028F8D170472DE983
:100FF000F04F85B00920FFF70FFF019003F0E2FBEF
:101000004FF066328A4BCDE9020103F02BFC80469B
:101010000022884B03F026FC06460022864B03F094
:1010200021FC04460022854B03F02EFA824603F091
:1010300083FB0490049805B0BDE8F08F70B5FF20E5
:10104000FFF73EFB002519E0FFF706FF002400BF75
:1010500011E0734830F81400FF2806D1704830F8CA
:101060001400401E6E4921F814006D4911F8140057
:10107000FFF726FB641C802CEBDB6D1C642DE3DB8F
:1010800070BD10B56748806940F00400654988610B
:101090000846806940F0080088616348006820F0D5
:1010A0000F00614908606648006820F47F40644989
:1010B00008600846006840F4085008605948806994
:1010C00040F40070574988610846C06840F40070D9
:1010D000C8600846C06820F40070C86008464068D0
:1010E00020F4404048600846406840F400404860B2
:1010F0004848303800684D49084046493039086052
:101100000846006808600846006820F4807008609F
:10111000081D006820F00200091D086008460068EC
:1011200020F4602008600846006840F460200860F1
:101130000846006840F4801008600846006820F403
:101140000060086033480838006820F470003149B6
:101150000839086008460068002008602D482438D7
:10116000006820F070602B49243908600846006848
:1011700040F0E060086027482C38006840F001002B
:1011800024492C3908600846006840F008000860CF
:1011900000BF20482C38006800F008000028F8D173
:1011A0001C482C38006840F004001A492C390860AB
:1011B00000BF18482C38006800F004000028F8D15F
:1011C0000120FFF7DFF810BD10B51648806940F028
:1011D0000400144988610846806940F0080088616D
:1011E0001148006820F00F000F490860144800689B
:1011F00020F47F40124908600A48806940F400707A
:10120000084988610846C06840F40070C860084614
:10121000C06817E0342401408801214200002142C7
:101220001401002000100240000C0140FFFFF000FC
:1012300066660A4000002640000059400000B040A9
:101240000008014020F40070C8600846406820F49F
:10125000404048600846406840F4004048603548D7
:10126000006835490840334908600846006808604E
:101270000846006820F480700860081D006820F0AF
:101280000200091D08600846006820F4602008601C
:101290000846006840F4602008600846006840F492
:1012A000801008600846006820F40060086021484B
:1012B0002830006820F470001E4928310860084674
:1012C0000068002008601B480C3000681B4908407B
:1012D00018490C3108600846006840F0E06008607A
:1012E0001448001D006840F001001249091D086003
:1012F0000846006840F00800086000BF0D48001D67
:10130000006800F008000028F8D10A48001D0068B5
:1013100040F004000749091D086000BF0548001D92
:10132000006800F004000028F8D10120FFF72AF837
:1013300010BD000004240140FFFFF000FF00FFF09B
:1013400070B505460C461348806940F400601149A9
:10135000886111480580001F04800F4820380088EC
:1013600040F001000C49203908800846008840F010
:101370004000088008482C38008840F001000649E9
:101380002C3908800223192203210120FFF732F8AB
:1013900070BD0000001002402C2C01405A4AD26956
:1013A00042F00402584BDA611A46926942F0080290
:1013B0009A61564A126822F07F42544B1A601A46CC
:1013C000126842F03B421A601A1D126822F0FF02B6
:1013D0001B1D1A601A46126842F0BB021A604C4A82
:1013E0001080121F11804A4A143A128842F060029B
:1013F000474B143B1A801A46128842F4C0421A80A6
:101400001A1D128842F060021B1D1A801A461288AB
:1014100042F4C0421A801A1F128842F008021B1FB1
:101420001A801A46128842F400621A801A1D128825
:1014300042F008021B1D1A801A46128842F400620C
:101440001A801A1D128842F001021B1D1A801A46CA
:10145000128842F010021A801A46128842F48072F2
:101460001A801A46128842F480521A808022284B31
:101470002C3B1A801A46128842F001021A807047EB
:10148000214A926942F400621F4B9A611A4692699E
:1014900042F004029A611F4A126822F470421D4B06
:1014A0001A601A46126842F430421A601A4A1080D2
:1014B000121F1180184A103A128842F4C042164B8B
:1014C000103B1A801A46128842F400621A801A1DD4
:1014D000128842F480521B1D1A800F4A183212885B
:1014E00042F400420C4B18331A8080220A4B2C3BEA
:1014F0001A801A46128842F001021A8040F2EE2247
:10150000054B14331A80704700100240000C014054
:101510002C080040040801402C2C014010B58448E0
:10152000C06940F001008249C8610846806940F006
:10153000040088617F48006820F0FF007D49086052
:101540000846006840F044000860C804808940F004
:101550000100C90488810846808940F040008881E4
:1015600001231C2203211846FEF744FF00204FF000
:10157000804108854FF6FF7088850846008820F472
:10158000407008800846008820F060000880084607
:10159000008B40F0010008830846008B40F4807007
:1015A00008830846008C20F0020008840846008C5E
:1015B00020F0200008840846008B40F030000883AB
:1015C0000846008940F0030008810846008840F082
:1015D0000100088010BD10B55548C06940F00200F8
:1015E0005349C8610846806940F004008861514849
:1015F000006820F07F404F4908600846006840F0CE
:10160000884008604C48008840F001004A49088042
:101610000846008840F04000088001231D22032175
:101620001846FEF7E7FE002043491C3108804FF6BC
:10163000FF70091D088040480C38008820F4407075
:101640003D490C3908800846008820F06000088079
:1016500039480C30008840F0010037490C310880CF
:101660000846008840F480700880334814300088B1
:1016700020F002003049143108800846008820F02C
:10168000200008802C480C30008840F030002A49A7
:101690000C3108802848001F008840F003002649CC
:1016A000091F088024480C38008840F001002249B6
:1016B0000C39088010BD0146022904D003290BD043
:1016C000042919D111E04FF08042928C10B200220F
:1016D0004FF080439A8411E0174A1832128810B2F2
:1016E0000022154B18331A8008E0144A128810B2F1
:1016F0000022124B1A8001E0002000BF00BF70479B
:101700000D48001D00880C48001D008820F00100D5
:101710000949091D088070474FF08040008A4FF04A
:101720008040008A20F001004FF08041088270471D
:1017300000100240000801400C0400402408004052
:101740002DE9F05F05460E46300103F04BFD814662
:10175000A04905FB01F003F045FD8246494603F030
:101760002BFC0746384603F005FD84B2204603F003
:1017700039FD8346394603F07AFE82464FF08341B5
:1017800003F078FD814603F0F5FC80464FF6FF70CC
:1017900000EA041404EB080084B28F48806940F02A
:1017A00008008D4988610846C06940F48020C861FE
:1017B0008A48006820F47F4088490860084600682D
:1017C00040F40B40086085480830006840F48060B1
:1017D0008249083108608048006940F480207E49D1
:1017E00008610846006920F4802008617C48048074
:1017F000001D008842F20C0108437949091D088048
:101800000846008840F4807008800846008840F050
:10181000200008800223272200210846FEF7EAFD67
:10182000BDE8F09F2DE9FF5F6D480838008800F0A3
:10183000200000287DD06A48001F00886949087090
:10184000084600786849087066480078412809DB36
:1018500064480078482805DC6248007840386349CD
:1018600008600FE05F4800780A2804DA5D480078D5
:101870005E49086006E05B4800785A2802D10020E3
:101880005A490860574800787B2802D101205849FE
:101890000870544800787D2802D10220544908700D
:1018A0005348007801280AD14E4800785149524ADD
:1018B0001278885450480078401C4F4908704C48B2
:1018C0000078022835D14B48C078502803D1012038
:1018D0004A4908706FE04748C078572803D1012073
:1018E0004749087067E043484078232863D042485E
:1018F00000784449087036E03F490978414A127837
:10190000881A02F048FF804642460B4600203E49B6
:1019100001F0BAFF04460D463A490978491E354A96
:10192000515CA1F1300002F036FF064622462B46FC
:1019300000E04DE002F096FF82468B463348006897
:1019400003F0A0FA52465B46CDE9000102F0E0FC4C
:10195000CDE9020102F0AAFC2C4908602948007870
:10196000401E28490870274800780428C4DA214816
:101970004078303809281DD2DFE800F0050C111638
:101980001718191A1B002148006803F0F3FB2049BF
:1019900008700FE01D4800681E4908600AE01B48F7
:1019A00000681D49086005E004E003E002E001E092
:1019B00000E000BF00BF00200D4908700E4908700C
:1019C000104908701149086032210A4801F0BCFD35
:1019D000BDE8FF9F40420F0000100240040C014090
:1019E00008480040940000206500002010000020FE
:1019F000950000203C060020960000206800002092
:101A0000690000209700002000002440980000207A
:101A100064000020480000204C000020FB48806942
:101A200040F00400F94988610846806940F00800E8
:101A300088610846806940F010008861F4480068B9
:101A400020F47020F24908600846006840F44030F5
:101A50000860F048006820F07F40EE4908600846C2
:101A6000006840F04C500860EB48406820F470007B
:101A7000E94948600846406840F400004860704703
:101A800038B50446012000900020E4494870012048
:101A900000902DE0BDF80000204018B10120E04981
:101AA000086002E00020DE4908600120DD4908608E
:101AB0000520FEF74BFC0020DB49C1F8B0010520F2
:101AC000FEF744FC0120D849C1F8B001D748D0F84E
:101AD000340130B1D1484078BDF800100843CF49F7
:101AE0004870BDF800004FF6FF7101EA4000009019
:101AF000BDF80000FF28CDDD1020FEF727FC38BD23
:101B000010B50020C649091D0860C9490878FFF7CB
:101B1000B7FFC7494878FFF7B3FF0120C549C1F8AF
:101B2000BC01BE484078732801D1002010BD0120BF
:101B3000FCE71CB500200190012000900020B8496E
:101B4000091D0860BA490878FFF79AFFB849487834
:101B5000FFF796FF0220019035E00120009026E07B
:101B60000120B04908600520FEF7F0FB0020AE49D7
:101B7000C1F8B0010520FEF7E9FB0120AA49C1F830
:101B8000B001AA48D0F8340150B1A4489DF804101F
:101B9000405CBDF800100843A0499DF8042088541B
:101BA000BDF800004FF6FF7101EA40000090BDF85B
:101BB0000000FF28D4DD1020FEF7C8FB9DF80400CC
:101BC000401CC0B201909DF804000928C5DB01202B
:101BD0009349091D08601CBD002004E000218F4AC4
:101BE0001154411CC8B20928F8DB704710B5FFF743
:101BF000F3FFFFF79EFF8948C0788849097940EADA
:101C000001208D49088000240FE08C4810F8140052
:101C1000401E012101FA00F087490988084010B9E7
:101C2000601CC0B210BD601CC4B2102CEDDB0020E3
:101C3000F8E701467948405C704770B505460C46A8
:101C400000207749091D08601020FEF77FFB012066
:101C5000FFF716FF4220FFF713FF0020FFF710FFEA
:101C60002846FFF70DFF2046FFF70AFF0020FFF789
:101C700007FF0020FFF704FF0020FFF701FF00200F
:101C8000FFF7FEFE01206B49C1F8BC011020FEF7F2
:101C90005DFB70BD10B500206149091D0860102072
:101CA000FEF754FB0120FFF7EBFE4220FFF7E8FEB2
:101CB0000020FFF7E5FE0020FFF7E2FE0020FFF71F
:101CC000DFFE01205B49C1F8BC011020FEF73EFB9E
:101CD00010BD10B500205249091D08601020FEF704
:101CE00035FB0120FFF7CCFE4320FFF7C9FE0020A3
:101CF000FFF7C6FE0120FFF7C3FE0020FFF7C0FE7E
:101D00000020FFF7BDFE0020FFF7BAFE0020FFF71E
:101D1000B7FE0020FFF7B4FE01204649C1F8BC0120
:101D20001020FEF713FB10BD10B500203C49091D23
:101D300008600120FFF7A4FE4420FFF7A1FE002069
:101D4000FFF79EFE0120FFF79BFE0320FFF798FEA2
:101D50000020FFF795FE0020FFF792FE0020FFF71E
:101D60008FFE0020FFF78CFE01203249C1F8BC0134
:101D70001020FEF7EBFA10BD10B500202849091D10
:101D800008601020FEF7E2FA0120FFF779FE4D20EF
:101D9000FFF776FE0020FFF773FE0020FFF770FECE
:101DA0000120FFF76DFE01202249C1F8BC0110207F
:101DB000FEF7CCFA10BD10B500201949091D0860C6
:101DC0001020FEF7C3FA0120FFF75AFE4320FFF769
:101DD00057FE0020FFF754FE0020FFF751FE5A2067
:101DE000FFF74EFE5A20FFF74BFE5A20FFF748FE42
:101DF0005A20FFF745FE5A20FFF742FE01200D4909
:101E0000C1F8BC011020FEF7A1FA10BD001002407D
:101E100004080140040C0140001001406E0600203F
:101E2000B8812142B001214200002142000022423B
:101E30009E000020008021429C000020A000002085
:101E400010B5FFF727FFFFF725FFFFF723FFFFF789
:101E500040FFFFF769FFFFF7AEFF10BD10B5174851
:101E6000806940F00400154988611548006820F435
:101E70007020134908600846006840F4002008609C
:101E80000F480830006840F480500D490831086060
:101E9000012205210020FEF7E7FA02231722012183
:101EA0001846FEF7A7FA10BD0648006828B920209A
:101EB000054908600120054908707047001002407C
:101EC00004080140140121421404014003000020D1
:101ED000B048B1494860B14848607047AE480069B1
:101EE00040F08000AC4908617047AB48C16801F020
:101EF000010008B10120704701F0040008B1022080
:101F0000F9E701F0100008B10320F4E70020F2E740
:101F100070B5044600BFFFF7E8FF0546012D00D06D
:101F200006E00120FEF712FA601E84B2002CF2D106
:101F300000BF04B9FF25284670BD70B505460024D2
:101F400045F6FF70FFF7E4FF0446C4B99248006904
:101F500040F002009049086108464561006940F080
:101F60004000086145F6FF70FFF7D2FF0446012CE0
:101F700005D08948006920F00200874908612046A1
:101F800070BD70B505460E46FF20FFF7C1FF044641
:101F900094B98148006940F001007F4908612E80B2
:101FA000FF20FFF7B5FF0446012C05D07A480069F1
:101FB00020F0010078490861204670BD014608887C
:101FC00070472DE9F04105460E461746002407E00C
:101FD00036F814102846FFF7D4FFAD1C601C84B2FD
:101FE000BC42F5DBBDE8F08130B503460C46154632
:101FF000002207E01846FFF7E1FF24F812009B1CBF
:10200000501C82B2AA42F5DB30BD2DE9F05F80465C
:102010008A461746B8F1006F02D36148804501D364
:10202000BDE8F09FFFF754FFA8F1006B4FEA9B2536
:10203000CBF34809C9F50074A74200DC3C464EE0EA
:102040004FF0006101EB85208A145649FFF7CCFF61
:1020500000260BE009EB0600524931F810004FF65C
:10206000FF71884200D003E0701C86B2A642F1DB0B
:1020700000BFA6421BDA4FF0006101EB8520FFF79D
:102080005CFF002608E03AF8160006EB0901454A15
:1020900022F81100701C86B2A642F4DB4FF00061FA
:1020A00001EB85208A143F49FFF78BFF04E02246AD
:1020B00051464046FFF785FFA74200D110E06D1C56
:1020C0004FF000090AEB440A08EB4408381B87B2BA
:1020D000B7F5007F02DD4FF4007400E03C46AFE747
:1020E00000BFFFF7FBFE00BF9AE713B504460122CD
:1020F00001A92046FFF789FF1CBD10B50A222A4915
:102100002A48FFF771FF284800884FF6FF71884280
:1021100014D125484088884210D1234880888842BD
:102120000CD12148C088884208D11E20204908705F
:102130002048214908602149086014E01A490888AC
:1021400003F050F8044603F015F8194908701649D1
:10215000488803F047F8184908601349888803F055
:1021600041F81649086010BD10B5114800781449AF
:1021700008801148006802F0FDFF114948800F48AF
:10218000006802F0F7FF0E4988800A220748FFF72F
:102190003CFF10BD2301674500200240AB89EFCD15
:1021A00000000108780600201402002000E000086A
:1021B0006400002000004041480000204C00002046
:1021C000280200201748806940F004001549886102
:1021D0001548006820F47F2013490860084600680D
:1021E00040F44C30086010480C30006840F010009B
:1021F0000D490C310860704718B900210B4A116075
:102200000FE00B490968491C094A1160814208D155
:1022100006490968C943074AC2F890110021044AD7
:1022200011607047001002400008014090012142F7
:10223000C00000200000214270B504460D4629462A
:10224000204602F04BFE064602F078FFFE49086089
:102250002946204603F016F9064602F06FFFFB49B7
:10226000086070BD10B5FA4B1B78022B05DB002807
:1022700000DA0020002900DA0021002808DA4FF4F3
:10228000E153F44C238000F5E153241D238008E042
:102290004FF4E153EF4C241D2380C0F5E153241F7C
:1022A0002380002909DA4FF4E153EA4C08342380F3
:1022B00001F5E153241D238008E04FF4E153E54C80
:1022C0000C342380C1F5E153241F238010BD41F657
:1022D000F420E14909684242914202DA4142DE4A71
:1022E0001160DD490968814201DDDB490860DB4995
:1022F00009684242914202DA4142D84A1160D74904
:102300000968814201DDD549086070472DE9F05F19
:1023100004460D46281BD24908600846006802F0B2
:1023200049FF8346CF480168584602F0A3FF804624
:10233000CB490968CC4A1268881A02F03BFF8346F1
:10234000CA480168584602F095FF8146414602F0AE
:10235000C5FD0746C648006802F02CFF8246394694
:1023600002F0BCFD064602F0E9FEC1490860BC4827
:102370000068BD490860BE480068BDE8F09F2DE9CF
:10238000F05F04460D46281BBA49086008460068FD
:1023900002F010FF8346B3480168584602F06AFF16
:1023A0008046B4490968B44A1268881A02F002FFEC
:1023B0008346AE480168584602F05CFF81464146BC
:1023C00002F08CFD0746AD48006802F0F3FE82463D
:1023D000394602F083FD064602F0B0FEA7490860C8
:1023E000A4480068A4490860A4480068BDE8F09FBC
:1023F0000146B1F5397F03DBA14A1278012A01D1E8
:10240000012000E0002070472DE9F04F8BB0022042
:1024100009908F480078002876D19A48006828B93A
:102420000020994908609949086087E1954800684B
:10243000012809D19648007802F0D4FE924908603C
:1024400000209249086079E18E480068022809D18D
:102450008F48007802F0C6FE8B4908608D488B4992
:1024600008606BE187480068032806D10020864990
:10247000086088488549086060E18248006804284F
:102480000AD183480078404202F094FE7E490860F9
:1024900081487E49086051E17A48006805280AD1E0
:1024A0007B480078404202F085FE774908600020B2
:1024B0007649086042E17348006806280AD17448EA
:1024C0000078404202F076FE6F49086071486F491B
:1024D000086033E16B480068072806D100206A498C
:1024E00008606D486949086028E166480068082866
:1024F0009BD16748007802F075FE63490860664822
:10250000624908601AE1FFE751480078012845D187
:1025100062490968A1F1800002F04CFE0890604910
:102520000968A1F1800002F045FE07900998404239
:1025300002F040FE0446089902F068FE09D20998AC
:1025400002F038FE0446089902F060FF01D2002034
:1025500008900998404202F02DFE0446079902F0C7
:1025600055FE09D2099802F025FE0446079902F0AB
:102570004DFF01D200200790089880F000444FF0F2
:102580008041204602F018FD3F4908604FF081412C
:10259000079802F011FD3D490860CFE02C48007813
:1025A000022832D13F48384908603F490978A1F1F3
:1025B000400002F0FFFD3D4908603D4801683B488E
:1025C000006802F05FFF07464FF07E5102F052FEB6
:1025D000064602F057FC04460D463448006802F0F7
:1025E00051FC0646334A344B02F03CF98046224601
:1025F0002B4601F08DFE824601F058FE234908600B
:102600002A4800682A49086098E0114800780328A1
:102610007ED124481C49086028490968C1F164003A
:1026200002F0C8FD21490860214801681F48006880
:1026300002F028FF81464FF0814102F01BFE8046E8
:1026400002F020FC3CE000003400002038000020B4
:102650000000002034080040280000202C0000204A
:10266000E40000204C000020EC0000204800002086
:10267000E8000020D8000020E0000020DC0000205E
:102680000100002010000020180000202000002081
:10269000640000200000A0410000A0C15400002000
:1026A000580000200000344266000020F0000020A6
:1026B000F40000209A9999999999C93F78000020CF
:1026C000CDE90401FD48006802F0DCFB8046FC4ACD
:1026D000FC4B02F0C7F8CDE90201F848006802F0AF
:1026E0002DFD0690002801DB069901E0069949427C
:1026F000084602F05FFD0090F0480168009802F083
:10270000B9FD019002F0BEFB8046EF4AEF4B00E0BE
:1027100014E002F0A7F88246DDE9022301F0F8FD9B
:102720000646DDE9042301F0F3FD044601F0BEFD99
:10273000E7490860E1480068E64908600BB0BDE879
:10274000F08F0146002901DA484200E00846704750
:1027500000B5E1480088E14908800520E04908808B
:1027600014E0DD48DE49098830F81100DB490988AA
:10277000884206DBD848DA49098830F81100D74981
:102780000880D7480088401CD5490880D448008874
:102790007B28E6DBD0480088D24908800520D04954
:1027A000088014E0CC48CE49098830F81100CD49A2
:1027B0000988884206DCC848C949098830F81100F0
:1027C000C8490880C6480088401CC5490880C448DC
:1027D00000887B28E6DBC1490988C24A128888182C
:1027E00000EBD071C1F34701BF4A11700520BC490D
:1027F000088044E0B848BA49098830F81100BA495D
:102800000978884236DDB449B5480088401C31F863
:102810001000B549097888422CDDAF49B0480088DE
:10282000801C31F81000B0490978884222DDAA499D
:10283000AB480088C01C31F81000AB4909788842C9
:1028400018DAA549A6480088001D31F81000A649ED
:10285000097888420EDAA049A1480088401D31F865
:102860001000A1490978884204DA9D4800889F49F0
:10287000088008E09A480088401C994908809848D8
:1028800000887628B6DB00BF76209949088044E0AE
:1028900091489749098830F811009349097888428E
:1028A00036DA8D4992480088401C31F810008E4974
:1028B000097888422CDA88498D480088801C31F8D4
:1028C000100089490978884222DA834988480088BB
:1028D000C01C31F8100084490978884218DD7E490F
:1028E00083480088001D31F810007F49097888422C
:1028F0000EDD79497E480088401D31F810007A4984
:102900000978884204DD7A4800887A49088008E01E
:1029100077480088401E7649088075480088052859
:10292000B6DC00BF73490988704A1288881800EB2A
:10293000D071C1F34701704A1170114609786F4A8E
:102940001288881AFFF7FDFE5A2803DD6B480078CD
:1029500069490870684800786849088000BD70B50A
:10296000FDF796FF0546012D07D16548007808B9A7
:10297000012000E0002062490870FDF79CFF04463A
:10298000012C07D15F48007808B9012000E0002041
:102990005C49087070BD10B55B48008800F001000C
:1029A00000287CD05848008820F001005649088053
:1029B0005648007808B9012000E00020534908700B
:1029C0005348007801280BD152480078401CC0B20F
:1029D000504908700A2803D1002008704C4908703B
:1029E0004A480078012839D1FFF7B9FF4A480078F2
:1029F000022803D1FEF730FAFFF7AAFE4648007816
:102A000003282BD1FEF708FA444908600820FEF796
:102A100003FA434908600220FEF7FEF941490860C5
:102A20003E480068096801EBC10202EB011100EBAE
:102A300081013B480068C72200FB02103A49086048
:102A40003648006837490968084435490968084428
:102A50003549096891FBF0F0344908602B4800784B
:102A6000002875D10220FEF726FE314908600320B8
:102A7000FEF721FE40422F490860FFF7C5FC1448CD
:102A800001682D480068FFF7D7FB2C480068FFF766
:102A9000AFFC90B92A4801682548006800E097E03B
:102AA000FFF76DFC27490860274801682148006846
:102AB000FFF72CFC254908604BE055E0F0000020B2
:102AC0007B14AE47E17A843FFA7E6ABC7493683F18
:102AD00020000020F400002014010020020100204A
:102AE000F80000200401002067000020FC00002006
:102AF000FA000020FE0000206600002000010020F7
:102B00000100002002000020102C0140C400002021
:102B10004500002044000020000000206C00002040
:102B20007400002070000020D400002078000020F5
:102B30000400002008000020180000203C000020B5
:102B40003400002028000020380000202C00002045
:102B500030E0FFF7BCFB1F4802681F4801681F48B0
:102B60000068FFF77FFB05E040F2EE2200210846F7
:102B7000FFF778FBFEF73BFA19490860194800682F
:102B8000401C18490860184800681549096808443D
:102B9000154908601348006864280BD1084600688E
:102BA000642190FBF1F01149086000200E49086093
:102BB0000C4908600E48007818B96420FFF71CFB28
:102BC00006E00B480078012802D10020FFF714FB33
:102BD00010BD0000300000202C0000202800002044
:102BE000C8000020CC000020D00000203C000020C5
:102BF000020000202DE9F04106460D46174600244C
:102C00003A4629463046FDF75AFF3A4629463046AD
:102C1000FDF755FF00BF07E02819C1B23A4630461C
:102C2000FDF74DFF601CC4B2082CF5DBBDE8F08158
:102C300070B5002410E0F24830F81400F14909782A
:102C4000884201DA012500E000252A4600212046BD
:102C5000FFF7D0FF601CC4B2802CECDB70BD38B530
:102C6000E9480078E0B9E9A200210846FDF7FDFF38
:102C70000C2003230090E748027800212D20FDF767
:102C8000AAFFE5A20A210020FDF7EFFF0C20032395
:102C90000090E24802780A211E20FDF79CFF8DE09B
:102CA000D948007801282AD1DDA200210846FDF785
:102CB000DCFF0C2003230090DA48002102680F207B
:102CC000FDF789FFD4A200212820FDF7CEFF0C20BC
:102CD00003230090D448002102683720FDF77BFFD2
:102CE000D2A20A210020FDF7C0FF0C200223009091
:102CF000CF480A2102681920FDF76DFF5EE0C24847
:102D0000007802281ED1FFF793FFCAA20A210020F3
:102D1000FDF7ABFF0C2003230090C74802780A217F
:102D20002320FDF758FFC5A20A214620FDF79DFF8D
:102D30000C2003230090B34802780A215F20FDF79E
:102D40004AFF3BE0B0480078032837D1BCA20021FD
:102D50000846FDF78AFF0C2004230090B9480021A3
:102D600002680A20FDF737FFB7A200212820FDF7EF
:102D70007CFF0C2004230090B4480021026832201C
:102D8000FDF729FFB2A200215020FDF76EFF0C20B5
:102D900004230090AF48002102685A20FDF71BFF72
:102DA000A4A20A210020FDF760FF0C20042300905C
:102DB000A9480A2102681420FDF70DFFA7A21421DB
:102DC0000020FDF752FFA848006800280FDAA7A2EC
:102DD00014215020FDF749FF0C2005230090A24844
:102DE0000068424214215F20FDF7F5FE0DE0A0A22D
:102DF00014215020FDF739FF0C20052300909A483C
:102E0000142102685F20FDF7E6FE9AA21E21002031
:102E1000FDF72BFF9A48006800280FDA93A21E21C5
:102E20005020FDF722FF0C200523009094480068F5
:102E300042421E215F20FDF7CEFE0DE08CA21E2136
:102E40005020FDF712FF0C20052300908C481E2116
:102E500002685F20FDF7BFFE8AA228210020FDF74F
:102E600004FF8AA228214420FDF7FFFE88A2282122
:102E70005A20FDF7FAFE87480068642190FBF1F4C0
:102E80000C2002232246282100903720FDF7A3FEC4
:102E900080480068642190FBF1F201FB12040C20D1
:102EA00002232246282100904E20FDF794FE794807
:102EB0000068642190FBF1F201FB12000A2807DA96
:102EC0000C2002230022282100904820FDF783FED9
:102ED0007148007820B971A228216720FDF7C5FE4E
:102EE0006D480078012804D16DA228216720FDF7E4
:102EF000BCFE6CA232210020FDF7B7FE42480078EC
:102F000028B96AA232212820FDF7AFFE1CE03E4816
:102F10000078012805D166A232212820FDF7A5FE00
:102F200012E039480078022805D162A23221282017
:102F3000FDF79BFE08E034480078032804D15EA228
:102F400032212820FDF791FEFDF765FD38BD2DE902
:102F5000F04F87B04F480068A0F53970400003215A
:102F600090FBF1FABAF1000F01DA4FF0000ABAF162
:102F7000640F01DD4FF0640A4148006801F00BFC6A
:102F800007464E4A4E4B01F06DFC054601F0D4FB5E
:102F90008146B9F1000F01DAC9F100093248006831
:102FA00001F0F9FB0546454A454B01F05BFC07463D
:102FB00001F0C2FB0446002C00DA6442414800786C
:102FC00008B9012000E000203E4908703E48007822
:102FD00001287FD13D48006802F0B0F805463C4822
:102FE000006802F0ABF806460020029003900490BF
:102FF000059000902B4632460190064801786AE021
:1030000014010020670000200000002053504545B7
:1030100044000000640000205258000065000020B9
:103020004C59000054000020580000204B45590026
:10303000600000205A0000006600002059000000D7
:103040004C0000006C0000204D00000070000020CB
:10305000520000007400002078000020456E636F6D
:103060004C45465400000000040000202D000000E4
:103070002B000000456E636F524947485400000022
:1030800008000020564F4C54414745002E000000D8
:10309000560000003C000020010000204F2D4E0093
:1030A0004F4646004D4F44452D0000004150500012
:1030B0005053320043434400454C45009A99999936
:1030C0009999F13F10010020680000204C00002079
:1030D0004800002006E055A000F0BAF900205B4946
:1030E000087023E05A480078B8B95A490968A1F233
:1030F000EE2001F050FB0546574A584B01F0B2FB59
:10310000074601F019FB834609F0FF02E1B253467E
:10311000009053A000F09CF908E05548036855481A
:1031200002685548016855A000F092F907B0BDE863
:10313000F08F10B54F48006802F03CF804460121BA
:1031400000F0E8F84A48006802F034F8044602212A
:1031500000F0E0F80321002000F0DCF8032000F08C
:1031600028F94A49087000204949087012E000BF58
:103170004848008800F040000028F9D046484449FB
:103180000978405C4349091D088041480078401C8B
:103190003F4908703E4800783C4909788842E6DBA0
:1031A00010BD10B53DA200210846FDF75EFD40A20E
:1031B0000A210020FDF759FD41A214210020FDF74E
:1031C00054FD4348007828B9AFF220121E21322066
:1031D000FDF74BFD3E480078012805D1AFF23012D3
:1031E0001E213220FDF741FD39480078022805D123
:1031F000AFF240121E213220FDF737FD344800782F
:10320000032805D1AFF250121E213220FDF72DFD0B
:1032100030A228210020FDF728FD32A23221002013
:10322000FDF723FDFDF7F7FB10BD00007B43256490
:103230003A25643A25643A25643A25643A25643A85
:1032400025643A25643A25647D2400006800002046
:1032500010010020300000207B14AE47E17AC43F0B
:103260007B4125643A25643A25643A25647D24002F
:1032700008000020040000203C0000207B42256460
:103280003A25643A25647D240000000009010020ED
:103290000801002000380140780A00205475726E41
:1032A00020526967687420576865656C00000000EB
:1032B000544F2053656C656374204D6F6465000046
:1032C00043757272656E74204D6F6465204973009A
:1032D0000000002050726573732055736572204B97
:1032E00065790000544F20456E642053656C65631A
:1032F00074696F6E0000000030B503461C788C5472
:103300005D78541C0D559D78941C0D55DD78D41CAA
:103310000D5530BD13B50C460A2C00DC04B91CBD9C
:103320000B2C43D2DFE804F042060C12181E242AAC
:1033300030363C00012244496846FFF7DDFF35E0A6
:10334000052241496846FFF7D7FF2FE009223E4991
:103350006846FFF7D1FF29E00D223B496846FFF799
:10336000CBFF23E0112238496846FFF7C5FF1DE077
:10337000152235496846FFF7BFFF17E01922324989
:103380006846FFF7B9FF11E01D222F496846FFF795
:10339000B3FF0BE021222C496846FFF7ADFF05E0A3
:1033A000252229496846FFF7A7FF00BF00BF00BFDD
:1033B000B5E701460A2900DC09B90020704724203E
:1033C000214A10700B293CD2DFE801F03B060B10BC
:1033D000151A1F24292F350005201B4A507106207D
:1033E000ECE70920184A50720A20E7E70D20164A38
:1033F00050730E20E2E71120134A50741220DDE7CB
:103400001520114A50751620D8E719200E4A50761B
:103410001A20D3E71D200C4A50771E20CEE721202A
:10342000094A82F821002220C8E72520064A82F8AE
:1034300025002620C2E72920034A82F829002A20F5
:10344000BCE70020BAE70000780A002070470000BF
:103450000FB4044910B503AA029800F0FFF810BC9D
:103460005DF814FB800000202DE9F0410E46044673
:10347000002020622046E168884730B3252805D027
:10348000D4E901219047206A401CF2E7E168204618
:1034900000278847050018D0A5F14100192802D857
:1034A00020354FF400673246294620462760FCF756
:1034B00057FE40B1012804D0F61D26F00706083655
:1034C000D8E7361DD6E72846DAE7206ABDE8F0815E
:1034D0002DE9F0410646002410687529314616A5ED
:1034E00010D0AFF30080002802DA404213A507E0B5
:1034F00031688A0701D512A502E0490704D511A554
:10350000012401E0AFF3008000210A2206F1240724
:1035100009E0B0FBF2FCB0FBF2F302FB1C00303020
:1035200078541846491C0028F3D123462A463046D1
:10353000BDE8F04100F039B8000000002D000000A7
:103540002B000000200000004FF000020429C0F012
:10355000128010F0030C00F09580CCF1040CBCF14B
:10356000020F18BF00F8012BA8BF20F8022BA1EB17
:103570000C0100F087B85FEAC17C24BF00F8012B82
:1035800000F8012B48BF00F8012B704770477047C7
:103590007047704710B500F09BF8006810BD10B57B
:1035A000044600F095F8046010BD2DE9F0470D4683
:1035B00099469246044600F124080168880604D51D
:1035C000E06921F01001216000E00120A84201DD46
:1035D000471B00E00027A1697A1902EB0900081ACD
:1035E000A0612078C00602D42046AFF300800026F8
:1035F00008E0D4E901211AF806009047206A401C2F
:10360000761C20624E45F4DB2078C0060AD52046A1
:10361000AFF3008006E0D4E9012130209047206A12
:10362000401C2062381EA7F10107F4DC07E0D4E952
:10363000012118F805009047206A401C2062281ECE
:10364000A5F10105F3DC2046AFF3008020780006E9
:1036500002D50220BDE8F0870120FBE7074B70B5DB
:103660000D467B4400F03DF80446284600F04CF837
:1036700010B14FF0FF3070BD204670BD1FD0FFFF6E
:103680004FF0000200B5134694469646203922BFFB
:10369000A0E80C50A0E80C50B1F12001BFF4F7AF46
:1036A000090728BFA0E80C5048BF0CC05DF804EB28
:1036B000890028BF40F8042B08BF704748BF20F896
:1036C000022B11F0804F18BF00F8012B704700004B
:1036D00000487047A40A002001694A1C026108786A
:1036E000704700B58FB0CDE9013100210591054942
:1036F0007944CDE9031011466846FFF7B5FE0FB0D7
:1037000000BD0000E5FFFFFF007B00F08000704778
:1037100000487047A40A00207546FFF7F9FFAE463F
:1037200005006946534620F00700854618B020B5CD
:10373000FCF740FDBDE820404FF000064FF00007C9
:103740004FF000084FF0000B21F00701AC46ACE849
:10375000C009ACE8C009ACE8C009ACE8C0098D46B6
:10376000704710B50446AFF300802046BDE8104016
:10377000FCF708BD490050EAC12018BF04204A0DDB
:1037800018BF40F0010040F2FF72B2EB515F08BF7A
:1037900040F00200012808BF052070472DE9F041E4
:1037A0004F1E00EBC7010446D1E9000115461E4635
:1037B00037F006020DD02A46334601F053F87F1E3B
:1037C00004EBC703D3E9002300F0A2FD37F00602A3
:1037D000F1D1022F25D0042F13D0062F18BFBDE83A
:1037E000F0812A46334601F03DF8D4E90A2300F07F
:1037F0008FFD2A46334601F035F8D4E9082300F05E
:1038000087FD2A46334601F02DF8D4E9062300F05F
:103810007FFD2A46334601F025F8D4E9042300F061
:1038200077FD2A46334601F01DF8D4E9022300F063
:103830006FFD2A46334601F015F8D4E90023BDE8B0
:10384000F04100F065BD000000221346104601491A
:1038500000F01ABE0000F03F00F05ABD00221346EF
:103860001046114600F010BE40F2013200204FF029
:10387000E04101F0AEBE0000024A0020110701F055
:10388000A8BE000001FDFFFF2DE9F04D1D460C46CE
:1038900098B0174621F0004123F00043002814BFE0
:1038A0004FF0010C4FF0000C0CEB440CFE4A0CEBFB
:1038B00002064FEA620C66452BD33E0018BF012674
:1038C00006EB45061644F94A964222D3F84A53EAD3
:1038D000070C02D0944205D148B918B00020114617
:1038E000BDE8F08D002808BF4FF0000C01D04FF06C
:1038F000010C0CEB440212F5001F0AD8002F14BF74
:103900004FF0010C4FF0000C0CEB450212F5001FBC
:1039100007D918B03A462B462146BDE8F04DFFF7CF
:103920009BBF0022DFF88CA3002CB8BF534526DADA
:10393000DFF884C36345A8BF022220DADFF870C332
:103940009C451CDCDFF874C30CEB235CBCF1140F4A
:1039500008DDCCF1340627FA06FC0CFA06F6BE4266
:103960000DD108E05FB9CCF1140623FA06FC0CFA7D
:1039700006F69E4203D10CF00102C2F1020251EAA6
:10398000000C19D1002D17DA002C18BF022A01D023
:10399000012A07D00220FFF702FE18B0BDE8F04D63
:1039A000FFF752BF0220FFF7FAFDFFF74DFF18B0F7
:1039B00081F00041BDE8F08DB7F1000C6CD15345AA
:1039C00025D104F1804212F5801201BF00280020A9
:1039D000B74918B008BFBDE8F08DB548884207DC8C
:1039E000002DA1BF6046294618B0BDE8F08D07E064
:1039F000281E05DA80F0004118B06046BDE8F08D61
:103A0000AF497944D1E9000118B0BDE8F08DDFF885
:103A1000A0C2634525D1002D1FDA19B1514512D13D
:103A2000D8B909E0002840F0EC82A24A214618B03B
:103A300062F31E01BDE8F08D0020214618B060F34E
:103A40001E01BDE8F08D08DA18B02346BDE8F04D40
:103A500002460020614600F017BD18B02146BDE8BF
:103A6000F08D514518DAB5F1804F0DD0A5F1005C0D
:103A7000BCF1FF5C10D1B4F1000C0DDB18B0614655
:103A8000BDE8F04D00F0ECBB234618B00246BDE89F
:103A9000F04D194600F0E6BE060024F0004C3BD184
:103AA000D9B1514533D1002C06DD002DA1BF002036
:103AB000514618B0BDE8F08D002C01DD002D1BDB58
:103AC000002C13DA002D11DB012A4FF0000014BF87
:103AD00078497C4918B0BDE8F08D022A18BF002C47
:103AE0000AD0012A08D1002C06DA0AE0002CB8BF5F
:103AF000002D11DA012A04D0002018B00146BDE8DB
:103B0000F08D18B000204FF00041BDE8F08DA1F11C
:103B10004050B0F17F601AD0012000EBE47050EA11
:103B2000020421D0624C521E4FF0000B104304BF20
:103B30004FF0000B644C654883427CDD644A654865
:103B400093421FDD884217DB002D25DB37E0002C78
:103B500000DA4AB1022A0CBF01204FF0FF3018B042
:103B6000BDE8F04D00F017BE0120FFF718FD18B0BA
:103B7000BDE8F04DFFF772BE4D4A8A4202DC002DCF
:103B80000ADC1CE0814202DA002D18DA04E0484B1E
:103B9000994220DD002D12DD0220FFF700FDFFF726
:103BA00063FE05460E46002253465846214600F065
:103BB00059FE18B066F31E012846BDE8F08D0220BC
:103BC000FFF7EDFCFFF758FE0A46214618B062F3F6
:103BD0001E01BDE8F08D00223046614601F068F814
:103BE00080460E466FF0010201F0F3FC4FF05532B3
:103BF000394B00F06BFF4246334600F033FE0022A3
:103C0000364B00F063FF824642463346049110462D
:103C1000194600F027FE5246049B00F023FE8A4618
:103C200000904FF0C0422E4B4046314600F01AFE45
:103C30002C4A2B4B00E027E0CDE9060151460098C5
:103C400000F010FE82460191274A284B404631463B
:103C500000F008FE5246019B01F02AF882460B460E
:103C600002460591DDE9060100F052FBDDE906237D
:103C700000268846304601F01BF85246059B00F0AE
:103C800025FF024600F07EB90020B1F5801F07DA5B
:103C900035223046614601F09CFC06466FF0340048
:103CA00000EB215024E00000FFFF1F00FFFF0F008A
:103CB0000000F03F0000F07F0000404301FCFFFFE8
:103CC0004A2700000000F0FF0000F0BF0000E041C4
:103CD0000000F043FFFFEF3F5555D53F0000E03FA8
:103CE0004715F73FFE822B6544DF5DF80BAE543E6F
:103CF000A0F2FF300190C1F3130040F07F6141F06A
:103D000040510291FE498842D8BF002004DDFD49A0
:103D10008142C8BF012001DD0D9008E000200D9018
:103D20000198401C01900298A0F580100290029921
:103D3000F54878440B910D9900EBC100D0E90023C0
:103D40000F9330460A920B9900F0B2FFCDE90601BD
:103D5000DDE90A2130460F9B00F0DAFA02460B46F5
:103D60000020EA4900F090FB059102460B460090C6
:103D7000DDE9060100F076FD1490E5488A464FF033
:103D8000000878440299006812904FF0005040EA11
:103D900061010D980F9B01EB804000F50021099116
:103DA0000A9A129800F084FF32460B9B00F08EFEB8
:103DB0004246534600F056FD0646029140465146A3
:103DC000099B129A00F04EFDDDE9062300F07EFE0D
:103DD0003246029B00F06CFF059B009A00F042FD0A
:103DE0000091149A049053461046194600F03AFD8B
:103DF00006460246C7480B46029106217844FFF763
:103E0000CDFCCDE90510029B32461046194600F064
:103E100029FDDDE9053200F025FD059106465346F2
:103E200040461946149A00F073FA009B049A00F079
:103E300019FD3246059B00F06BFACDE905104246AC
:103E400053461046194600F00DFD0022B24B029178
:103E50000A9000F05DFADDE9053200F059FA0E46ED
:103E60004246AD4B404600F023FF029B0A9A00F009
:103E70001FFFDDE9053200F029FE424602910A905B
:103E800033461046514600F0EDFCCDE9060153469D
:103E9000149A02990A9800F0E5FC8A46029033468B
:103EA00042460099049800F0DDFC5346029A00F067
:103EB0002FFA82460B4602460591DDE9060100F025
:103EC00027FADDE9062300208846064600F0F0FECA
:103ED0005246059B00F0FAFD824609914FF0604280
:103EE0008E4B3046414600F0BDFC049006918C4A52
:103EF0008A4B5046099900F0B5FC82460291894AE6
:103F0000894B3046414600F0ADFC5246029B00F022
:103F1000FFF9864B7B440D9A03EBC203D3E90023E0
:103F200000F0F6F90E900791019800F034FC05912D
:103F3000DDE9061382460E9A049800F0E9F97C4AFE
:103F40007A440D9B02EBC303D3E900230093029252
:103F500000F0DEF95246059B00F0DAF900268846AB
:103F600052463046059B00F0A3FE009B029A00F0EB
:103F70009FFE069B049A00F09BFE079B0E9A00F0A2
:103F8000A5FD024600200B4602903846294600F067
:103F900069FC824601912B4638461946029A00F088
:103FA00087FE3246434600F05DFC5246019B00F01E
:103FB000AFF907468A46324643462946029800F042
:103FC00051FC05460E463A46534600F0A1F9594ABF
:103FD0008846914221DBA8EB020353EA000210D18C
:103FE0002A46334600F064FECDE90401524A534BA1
:103FF0003846514600F08CF9DDE9042300F030FD2D
:1040000021D20220FFF7CBFAFFF72EFC0A46214609
:1040100018B062F31E01BDE8F08D494B28F0004254
:104020009A4210D3474A08EB020353EA00027FF496
:10403000C6AD2A46334600F03BFE3A46534600F0F2
:104040000FFD7FF6BCAD0022019228F000403E49F2
:104050003E4A01EB2051824223DA481C4FF4801182
:1040600021FA00F040443A4AC0F30A517A44394BED
:10407000A1F2FF31CB4020EA0303C0F3130040F468
:104080008010C1F11401C84012680190B8F1000F0E
:10409000BCBF404201902846314600F009FE05466B
:1040A0000E462A4633463846514600F031F94FF065
:1040B00000084246284B4046059100F0D3FBCDE96D
:1040C0000601264A264B4046059900F0CBFB00919D
:1040D00002902A4633464046059900F0E9FD3A46EB
:1040E000534600F0F3FC1F4A1F4B00F0BBFB009B44
:1040F000029A00F00DF90746884602460B4635E065
:104100008E9803007AB60B00922300000000F03F67
:10411000CA230000F82200000000084009C7EE3F53
:10412000FD033ADCF5015B14E02F3EBED021000018
:104130009421000000009040FE822B654715973CBB
:1041400000CC904000346F3F01FCFFFF0000E03FD7
:10415000E0200000FFFF0F00432EE63F396CA80C63
:10416000615C20BEEF39FAFE422EE63FDDE9060132
:1041700000F0CEF8DDE9062305460E4600F098FD76
:104180003A46434600F0A2FC0F462A4633460090CA
:104190001046194600F066FB824602462E488846C5
:1041A0000B4605217844FFF7F9FA5246434600F0E2
:1041B00059FB2A46334600F089FC80468A463B4636
:1041C00028463146009A00F04DFB3B46009A00F02D
:1041D0009FF80691009000224FF0804340465146E0
:1041E00000F066FD0F460C90424653462846314685
:1041F00000F038FB3B460C9A00F046F9069B009A0B
:1042000000F056FD2A46334600F052FD0022134BC3
:1042100000F05CFC054601980E4601EB00510815C4
:10422000002810DC28463146019A01F0D2F9FFF748
:10423000A1FA042808BFFFF71FFB28463146019A60
:1042400001F0C7F905460B4618B02A4658462146E4
:10425000BDE8F04D00F006BB801F00000000F03FFD
:104260002DE9F04106460F4600F03CFC041E0D46C9
:1042700018BF0120284320F00040C0F17F6000F10A
:10428000E040C00F0ED0301C18BF0120384320F092
:104290000040C0F17F6000F1E040C00F04BF01208A
:1042A000FFF77DF920462946BDE8F08121F0004264
:1042B000A2F16052B2F5801F01F0004328BFD2F195
:1042C0007F6C0BD95FEA001C43EAC20242EB5070DC
:1042D00018BF704728BF20F001007047B2F5801F5B
:1042E000BCBF184670474FEA410C1CF5001F02D2B4
:1042F000084601F086B870B500F05EFB000000894A
:10430000FFF7F6BF4FF00040A0F5800070470000B7
:1043100010B591EA030F48BF83F0004300F1D08449
:10432000841A71EB030C05D2121943EB0C03001B2A
:1043300061EB0C01DFF824E14FEA1154A4EB135CAC
:104340001EEA430F18BF9EEA445F73D023EA0E03B0
:10435000DCF1200E21EA045143F4801332D322FA17
:104360000CFE10EB0E0023FA0CFE41EB0E01CCF11B
:10437000200E03FA0EFE10EB0E0051F10001B1F514
:10438000801FCCF1200E32D201EB045112FA0EF252
:10439000BDE8104058BF7047401C38BF5FEA42027A
:1043A00018BF7047002814BF20F0010041F1000140
:1043B0004FEA410313F5001F38BF7047A1F1C04118
:1043C00000F048BB012A43EB0302ACF1200CDCF106
:1043D0001F0E32BF4FF0000E23FA0CF310EB030058
:1043E00041EB0451B4EB115FD0D0A1EB045101F5C6
:1043F000801149085FEA300001EB04510ED350F1FF
:10440000000038BF12FA0EFE08D1BDE81040C9E71F
:10441000401C38BF5FEA4202CAD1C3E7BDE8104082
:104420004FEA410313F5001F38BF7047A1F1C041A7
:1044300000F010BB9EEA445F08D011EA5E0FBDE8B1
:10444000104004BF01F0004100207047BDE810405B
:1044500070B500F0B1FA00BF64FBBE3E0000E0FFA3
:1044600002494FF0000001F082B800BF0000F87F61
:10447000491058BFC1F140415B1058BFC3F14043E0
:104480008B42EFF3008070472DE9C04130B4DFF874
:10449000A0C23CEA111418BF3CEA131400F0EC80EF
:1044A00081EA03051CEA111444EAD57418BF1CEA1A
:1044B000131500F0C780A4EB05044FF0004545EA52
:1044C000C12145EAC32341EA505143EA525304F162
:1044D0007F74994204F500344FEAC0204FEAC222AB
:1044E00008BF904200F09C804FEA13650FF240161F
:1044F000765D4FEA134506FB05F7C7F1807706FBAB
:1045000007F74FEAD737A7FB03687642C8F580382C
:10451000A7FB06CE38BFA8F1010807FB08E64FF05D
:10452000000EA6FB028CE6FB03CEDCF1000CCEF104
:10453000004E38BFAEF1010EA6FB0C584FF000073D
:104540004FF00005E6FB0E87A1FB08C6A0FB07CED7
:1045500016EB0E0645F10005E1FB076515F1E04E8F
:104560007EBFA4F580345FEA46066D4116F18007F0
:1045700045F100054FEA17274FEA066647EA056747
:10458000A6F1DE46B6F1805F4FEA15251FD9384601
:1045900024F0010C05EBC471BCF1FE6F01EB0C11B2
:1045A00002D8F0BCBDE8008124425CBF01F5801E4A
:1045B0009EEAC47F02D4F0BCBDE80081244238D416
:1045C000F0BCA1F1C041BDE8004100F043BA4FEAA0
:1045D000D22242EA43524FEAD323A7FB02864FEA94
:1045E000D02040EA415007FB03661EEA0E0F4FEA57
:1045F000D12105FB026658BFA6EB0056B6EB00566C
:104600004FEA520E4EEAC37E18EB0E0E56EB530ED7
:10461000BDD518EB02085E417F1C55F10005B6E7D9
:104620004FF480154FF000074FF000064FF00008E0
:10463000ADE7F0BC4FF0000001F1C04101F00041D6
:10464000BDE8008111EA0C1F0CEA131500D00CE044
:1046500013EA0C1F00F025804FF00000F0BC81EA47
:10466000030101F00041BDE80081F0BCBDE800415C
:1046700081EA030100F0EEB9F0BCBDE8004170B57D
:1046800000F09AF9097EFC3E00F007B881EA0301C8
:104690004FF0000001F00041704781EA030100F093
:1046A000D9B9F0BCBDE800414FF000002149704786
:1046B000FFFDFBF9F7F5F4F2F0EEEDEBE9E8E6E4E7
:1046C000E3E1E0DEDDDBDAD8D7D5D4D3D1D0CFCD6E
:1046D000CCCBCAC8C7C6C5C4C2C1C0BFBEBDBCBBA7
:1046E000BAB9B8B7B6B5B4B3B2B1B0AFAEADACABA2
:1046F000AAA9A8A8A7A6A5A4A3A3A2A1A09F9F9E7C
:104700009D9C9C9B9A99999897979695959493932D
:10471000929191908F8F8E8E8D8C8C8B8B8A8989C4
:104720008888878786858584848383828281818047
:104730000000FF070000F87F4FEA41034FEA5353A0
:10474000A3F58063D3F11E03C8BFD3F1210C0CDDA8
:104750004FF0004242EAC12242EA505232FA03FCD0
:104760008CEAE17CACEBE1707047102BC4BF0020F9
:10477000704703F5787CBCF1FF3F04D06FF0004236
:1047800082EA2100704770B500F016F94992248042
:1047900000207047F2E710F0004248BF4042B0FAF4
:1047A00080F310FA03F10AD0C3F11D0303F580630F
:1047B0004FEA415002EB035202EBD12170474FF018
:1047C00000007047B0FA80F310FA03F10AD0C3F189
:1047D0001D0303F580634FEA41504FEA035202EB99
:1047E000D12170474FF000007047000051EA030CE0
:1047F00017D41CF5801F58BFBCF5801F00F1068040
:10480000994218BF704708BF9042704707D711F50B
:10481000801F58BF13F5801F19D4994270478942F1
:1048200070471CF5801F08D5BCF5801FF7D58B425B
:1048300018BF704708BF824270474FF4001C1CEB42
:10484000410F38BF1CEB430F01D28B42704770B54C
:1048500000F0B2F8922449004FF000514FF080531D
:10486000FFF706BEDFF848C170B51CEA111E1EBF77
:104870001CEA13159EEA0C0F95EA0C0F00F06F80EE
:1048800081EA030423EA4C134EEAD47E21EA4C1158
:1048900041F4801143F48013AE44A1FB024CA0FB11
:1048A0000365AEF17F7E361955EB0C05A1FB034C79
:1048B0004CF10003A0FB021C16EB0C06654153F102
:1048C0000003094218BF46F0010613F4007F0BD124
:1048D0004FEA03314FEA0530340341EA155140EA0B
:1048E00016506FF003020AE04FEAC3214FEAC520D9
:1048F000F40241EA555140EA56506FF0020202EBD1
:104900002E4201EB025585EACE710AD05FEA440CD3
:1049100018BF24F0004450F1000041F1000120EAEA
:10492000D47040F2FE7C624500D270BDA84214BF34
:104930004FF080444FF04044002E08BF0024BEF1E9
:10494000806FA8BFA1F1C041BDE8704080F28280B5
:104950004FF0000001F1C04101F0004170479EEAB4
:104960000C0F0CEA131518BF95EA0C0F06D04FF088
:10497000000081EA030E0EF0004170BD00F01CF84B
:104980008900013E00F007B800F009B84FEA430C77
:104990005FEA5C5C08D081EA030100F05BB84FEA93
:1049A000410C5FEA5C5CF6D14FF0000001497047B2
:1049B0000000FF070000F87F0EF1020E2EF0030E3C
:1049C0005EF8046B364205D4012A43EB030515F566
:1049D000001F12D8012841EB010C1CF5001F0CD858
:1049E0000ED14FEAD17C15F5001F0CEB4C0C0CF1ED
:1049F000020C08BF4CEBD37C04E04FF0080C01E044
:104A00004FEAD37C0CEB4C0526FA05F606F00706B8
:104A1000B6F1040C06D20EEB860CBDE870404CF0EB
:104A2000010C6047DFE80CF0090B02024FF0004177
:104A30004FF00000A1F5002170BD19461046012875
:104A400051EB010418BFD4F5001484BF002001F01D
:104A5000004170BD0808A0F500114FEA3101704710
:104A600053EA010C17D41CF5801F58BFBCF5801FFA
:104A700000F106808B4218BF704708BF8242704722
:104A800007D713F5801F58BF11F5801F19D48B422B
:104A900070479B4270471CF5801F08D5BCF5801FEE
:104AA000F7D5994218BF704708BF904270474FF43E
:104AB000001C1CEB430F38BF1CEB410F01D2994285
:104AC00070470FB40CBC03BCFFF7C1BE91EA030FE3
:104AD00010B581F000413FF523AC83F0004300F0B6
:104AE000EFB800002DE9F04101F5801CBCF5001F76
:104AF000C0F2C3804FEA115C21EA0C510CF1FD0CAD
:104B000041F480115FEA5C0C0CF5C07C01D34000DD
:104B100049413DA4890241EA905187028E0E0A0C58
:104B2000A45D04FB04F602FB06F6C6F14046A4FBB6
:104B30000662F60D46EA422606FB06F4A4FB0123B4
:104B40005242C3F1404338BF5B1EA6FB0242002421
:104B5000E6FB0324D20B42EA4446A6FB0623A1FB54
:104B600002E2A3FB07E4A4184FF0000252F1000296
:104B7000E3FB01426442C2F1404E38BFAEF1010E88
:104B8000A6FB04234FF00002E6FB0E32A2FB034615
:104B90004FF00004B61954F10004E2FB0264A1FBDB
:104BA00006E6A4FB07E816EB08064FF0000858F1EC
:104BB0000008E4FB01687642C8F1405838BFA8F10C
:104BC0000108A2FB06E4A3FB08E52D194FF0000441
:104BD00054F10004E2FB0854A1FB05E6A7FB04E83E
:104BE00018EB06084FF0000656F10006E1FB0486BC
:104BF00018F1200556F10006A809A8F11B08B10913
:104C000008F03F08B8F10A0F40EA86601CD901EBB2
:104C10000C51BDE8F08100BFFCF5EEE8E2DDD8D331
:104C2000CFCBC7C3C0BDB9B6B4B1AEACA9A7A5A31D
:104C3000A19F9D9B9A9896959392908F8D8C8B892E
:104C40008887868584838281A0FB006800FB01F24F
:104C500008EB4208B8EB872807D5341858EB010455
:104C6000D5D5401C51F10001D1E7341A78EB01048D
:104C7000CDD4401E71F10001C9E75FEA4C0C5FEA38
:104C80009C5C0DD105D34FF0000001F00041BDE860
:104C9000F081BDE8F04170B5FFF78EFE6DDBFFBE21
:104CA000BDE8F0414FF00000004970470000F87F78
:104CB00010B591EA030F48BF83F000433FF530ABD6
:104CC000841A71EB030C07D212198CF0004C43EBE1
:104CD0000C03001B61EB0C01DFF8A4E14FEA115457
:104CE000A4EB135C1EEA430F18BF9EEA445F00F07A
:104CF000B08023EA6E03524221EA0451C3EB6E03F3
:104D000038BF5B1EDCF1200E25D322FA0CFE10EB1F
:104D10000E0043FA0CFE41EB0E01CCF1200E03FA1B
:104D20000EFE10EB0E0051F10001CCF1200E29D443
:104D300012FA0EF201EB0451BDE8104058BF704763
:104D4000401C1CBFB2F1004F704700280CBF491C2B
:104D500020F00100704712EB020E43EB030218BF74
:104D60004FF0010E4EEA4202ACF1200CDCF11E0EB7
:104D700054D943FA0CFE10EB0E0051F1FF31CCF187
:104D80001E0ED5D50EF1010E12FA0EFE404141EB7A
:104D9000010101EB445C5FEA5C5C10D910EBDE7052
:104DA00001EB045138BFBEF1004FBDE8104018BF01
:104DB000704700280CBF491C20F00100704730D21A
:104DC0004FEAD42C11F5001124F400641BD0B1FA81
:104DD00081F20B3AA41AA41ED2F12003914030FABA
:104DE00003F31943904001EBCC71002C01EB04510B
:104DF000BDE81040A8BF704701F1C0414FF000006E
:104E000001F000417047B0FA80F310FA03F100D1CD
:104E100010BDE41A173C4805C90AE4E701EB045148
:104E200010BD491001EB0451BDE810404FEA3000BD
:104E300002E04FF0000170474A0008BF0042F8D07E
:104E4000B2F5001F28BF704701F000414FF000008D
:104E500070479EEA445F07D011EA5E0FBDE810403C
:104E600004BF002100207047BDE8104070B5FFF777
:104E7000A3FD00BF40DFF63E83F0004110467047BF
:104E80000000E0FF43004FEAD30C4FEA3C0C4340E4
:104E90001FBF40070CF1605113F0FE4F70471CF02C
:104EA000006F03D100200CF0004170470CF000436C
:104EB00043EA507010B540EACC0000F05CFA00BF45
:104EC000000000924FEA0001FFF7C4BD4FF000411F
:104ED0004FF00000A1F500217047000090EA010F9B
:104EE00048BF81F0004100F1D482421A3CBF801AD1
:104EF00089184FEAD0524FF07F4C1CEA410FA2EBC9
:104F0000D15318BF9CEA026F00F03B804FF0004C79
:104F10004CEA00204CEA012121FA03FC10EB0C0CB6
:104F20001ED202F1FF325FEA1C2040EBC25038BFB4
:104F300070471CF07F0F4FEA400C18BFBCF17F4F49
:104F400038BF7047C3F12003994008BF20F001002B
:104F5000BCF17F4F38BF7047A0F1C04000F051BA9C
:104F60004FEA3C00000A40EBC25028BF1CF0FF0F84
:104F70004FEA400CE6D018BFBCF17F4F38BF7047F6
:104F8000EAE79CEA026F05D010EA5C0F08BF00F068
:104F90000040704710B500F0EEF900BF64FBBE3E64
:104FA000401058BFC0F14040491058BFC1F14041C6
:104FB0008142EFF3008070474FF47F0C1CEAD0125F
:104FC0001EBF1CEAD11392EA0C0F93EA0C0F00F0FB
:104FD000858090EA010F48BF42F4807240F4000CD3
:104FE00041F400002CF07F4120F07F4000B5814269
:104FF000A2EB03020FF2081CACEB504EC0F1000014
:105000009EF800E04FEA4E0E00FB0EFC38BF490050
:105010004FEA2C1C02F5FA020CFB0EF34FEACE1EEF
:105020004FEA112C4FEAC1210EEB635E42EB2242A4
:105030000EFB0CFC4FEA1C5300FB03114FEA112C32
:105040004FEA01310EFB0CFC4FEADC4C00FB0C116B
:10505000C14228BF09184CEB03335DF804EB10EB99
:10506000410143EBC250B2F57C0F38BF704729D5E0
:1050700012F0F00F1CBF00F1C04000F0004070477C
:10508000008182838485868788898B8C8D8E8F9121
:105090009293959697999A9C9D9FA0A2A3A5A7A845
:1050A000AAACAEB0B2B3B5B7B9BCBEC0C2C5C7C971
:1050B000CCCED1D4D7D9DCDFE2E6E9ECF0F3F7FAD5
:1050C000FE0000004FEA400C0CF1807CBCF17E4FEA
:1050D00028BF7047B0F1C04000F093B990EA010FCB
:1050E0000CEAD11348BF42F48072624538BF634571
:1050F00007D213F47F0F16D080EA010000F00040C1
:10510000704710B500F037F9097EFC3E00F005B895
:1051100080EA010000F00040704780EA010000F0E2
:10512000004000F06EB912F47F0F04BF02487047D0
:1051300080EA010000F065B90000C07F41000B0E5D
:10514000D3F19E0208D950F400034FEA032323FA57
:1051500002F048BF4042704710B500F00CF900BFA4
:1051600049922480002070476FF0004282EA2000BC
:1051700070470000C10DD1F19E0206DB4FEA00230B
:1051800043F0004323FA02F07047004207D54FEA8C
:105190004001B1F1FE4F02D24FF00000704710B550
:1051A00000F0E9F849922480002070476FEA20005F
:1051B0007047000010F0004148BF4042B0FA80F351
:1051C00010FA03F2C3F19D030BD051EAC35101EB76
:1051D0001220530638BF704700F1010008BF20F0CD
:1051E00001007047B0FA80F310FA03F2C3F19D0397
:1051F0000AD0D90501EB1220530638BF704700F1E1
:10520000010008BF20F001007047000050EA010CC7
:1052100000F113801CF5000F58BFBCF5000F01D43E
:105220008842704707D710F5000F58BF11F5000FDF
:1052300015D488427047894270471CF5000F04D589
:10524000BCF5000FF7D5814270474FF0807C1CEB16
:10525000400F38BF1CEB410F01D28142704710B59F
:1052600000F089F8922449004FF000504FF080512F
:10527000FFF796BE4FF47F0C1CEAD0121EBF1CEA4B
:10528000D11392EA0C0F93EA0C0F00F0478090EADA
:10529000010F48BF42F480724FF0004C4CEA0020EE
:1052A0004CEA012102EB0302A0FB0113A2F500026C
:1052B000002918BF43F001035B0028BF4FEA330306
:1052C00042EB22425FEA132C4CEBC2502EBFBCEBE8
:1052D000436FB2F57C0F70474FEA036CBCF1004F8F
:1052E00008BF20F00100B2F57C0F38BF70470BD526
:1052F00082F0FF0212F5803FC8BF704700F1C04046
:10530000D8BF00F00040704700F5000C5FEA4C0C7D
:1053100048BF7047B0F1C04000F073B890EA010F89
:105320000CEAD11348BF42F48072624538BF63452E
:1053300004D280EA010000F00040704710B500F090
:105340001AF800BF8900013E00F007B800F009B864
:105350005FEA410C5FEA1C6C08D080EA010000F0B3
:1053600050B85FEA400C5FEA1C6CF6D14FF0004089
:10537000A0F5800070470EF1020E2EF0030E5EF8CD
:10538000044B244204D44FEA4102B2F17F4F11D8BA
:105390004FEA4003B3F17F4F0CD80ED14FEAD07CD7
:1053A000B2F17F4F0CEB4C0C0CF1020C08BF4CEB34
:1053B000D17C04E04FF0080C01E04FEAD17C0CEB0B
:1053C0004C0324FA03F404F00704B4F1040C06D2ED
:1053D0000EEB840CBDE810404CF0010C6047DFE898
:1053E0000CF0070802024FF00040A0F5800010BD4D
:1053F0000846420018BFD2F1807288BF00F000401A
:1054000010BDFF2141EAD050C005704751EA000CA1
:1054100000F113801CF5000F58BFBCF5000F01D43C
:105420008142704707D711F5000F58BF10F5000FE4
:1054300015D481427047894270471CF5000F04D58E
:10544000BCF5000FF7D5884270474FF0807C1CEB0D
:10545000410F38BF1CEB400F01D28842704780EAF1
:10546000010081EA000180EA0100FFF7F8BE80F048
:10547000004090EA010F7FF538AD81F0004100F067
:1054800008B8000090EA010F48BF81F000413FF5E5
:105490002CAD421A04D882F00042A0EB0200114465
:1054A0004FEAD0524FF07F4C1CEA410FA2EBD15390
:1054B00018BF9CEA026F4AD04FF0004C4CEA002023
:1054C0004CEA012121FA03FCB0EB0C0C0FD412F0D2
:1054D000FE0F36D05FEA4C001DD5001240EBC250E3
:1054E00038BF70471CF03F0F18BF70470BE0A2F1A8
:1054F00001025FEA1C2040EBC25038BF70471CF02D
:105500007F0F18BF7047C3F12003994014BF401E9E
:1055100020F00100704780084FEA122308BF70474F
:10552000B0FA80FCA2EB0C02CCF1280C60FA0CF073
:1055300093EA122F04BF00EBC25070474FEAC370CA
:105540007047130A5FEADC1008BF7047F6E79CEA71
:10555000026F04D010EA5C0F08BF0020704710B53E
:10556000FFF709FF40DFF63E81F0004070470CF086
:105570000F03092B08BF082000F059800A2B0BD01D
:10558000082B18BF704708BF1CF0400F0AD04FF01F
:1055900000004FF0000170471CF0400F18BF4FF0A3
:1055A000004070471CF0100F08D020F0704300F04E
:1055B0007F4242EAD3014FEA4370704700F06040F7
:1055C00021F07F4242EA000201F07F4040EA72701F
:1055D00070474FF0FF0C4CF4E06C1CEA11531CBFF9
:1055E0009CEA030C9445C2BFDA4201EB02517047BA
:1055F000002B0DD0BCF1000F0FD0002A01F00041AC
:10560000A4BF41F0E04141F07F614FF000007047DE
:1056100001F000414FF00000704750EA01334FF0B5
:105620009B0C18BF4CF0806C7EF41AAF70471CF4D2
:10563000801F11D01CF4E02F03D06FEACC31490059
:1056400070474FF04050EFF3008222F0704242EA80
:10565000000282F3008870474FF00000704700009E
:1056600000000000000000000000000000003F40BB
:10567000000000000000000030004000300040004A
:10568000000009000BC03D000BC03D00090018C020
:1056900024407FE0224031800000180024C01B001D
:1056A0000D803240018003801C4027401C80074051
:1056B000004010006000000000000000000000003A
:1056C000000000001F8020404020000040202040BB
:1056D0001F8000000000090006001F80060009006E
:1056E0000000040004003F800400040000000010DB
:1056F000006000000000000000000400040004003E
:105700000400040000000000004000000000000051
:105710000000002001C006003800400000001F808B
:105720002040204020401F800000000010403FC06B
:1057300000400000000018C02140224024401840D2
:10574000000010802040244024401B800000020004
:105750000D0011003FC0014000003C802440244067
:105760002440238000001F802440244034400380D4
:1057700000003000200027C03800200000001B80FF
:105780002440244024401B8000001C0022C02240F2
:1057900022401F80000000000000084000000000C0
:1057A0000000000000000460000000000000000095
:1057B00004000A001100208040400900090009008F
:1057C00009000900000000004040208011000A008C
:1057D00004001800200023402400180000001F804F
:1057E0002040274029401F400000004007C03900EA
:1057F0000F0001C0004020403FC0244024401B80D7
:1058000000001F80204020402040308000002040C9
:105810003FC0204020401F80000020403FC0244067
:105820002E4030C0000020403FC024402E003000F9
:1058300000000F00108020402240338002002040F2
:105840003FC0040004003FC02040204020403FC033
:105850002040204000000060202020203FC0200089
:10586000200020403FC024400B0030C0204020409A
:105870003FC020400040004000C03FC03C0003C08B
:105880003C003FC0000020403FC00C4023003FC010
:1058900020001F802040204020401F80000020402A
:1058A0003FC024402400180000001F8021402140F8
:1058B00020E01FA0000020403FC02440260019C067
:1058C000004018C0244024402240318000003000B5
:1058D00020403FC020403000000020003F800040BA
:1058E00000403F80200020003E0001C0070038003B
:1058F0002000380007C03C0007C0380000002040EE
:1059000039C0060039C0204000002000384007C0E0
:10591000384020000000304021C02640384020C0E0
:105920000000000000007FE0402040200000000058
:1059300070000C0003800040000000004020402068
:105940007FE0000000000000200040002000000078
:1059500000000010001000100010001000100000E7
:105960000000400000000000000000000280054030
:10597000054003C0004020003FC0044004400380B5
:1059800000000000038004400440064000000000C6
:105990000380044024403FC00040000003800540D5
:1059A000054003400000000004401FC02440244084
:1059B0002000000002E00550055006500420204061
:1059C0003FC00440040003C000400000044027C062
:1059D00000400000000000100010041027E000004C
:1059E000000020403FC00140070004C004402040A8
:1059F00020403FC000400040000007C0040007C036
:105A0000040003C00000044007C00440040003C0B9
:105A100000400000038004400440038000000410A4
:105A200007F004500440038000000000038004409D
:105A3000045007F00010044007C0024004000400B6
:105A40000000000006400540054004C000000000C2
:105A500004001F8004400040000004000780004054
:105A6000044007C000400400070004C00180060095
:105A70000400060001C0070001C006000000044049
:105A800006C0010006C0044000000410071004E036
:105A90000180060004000000044005C006400440E8
:105AA00000000000000004007BE040200000000037
:105AB00000000000FFF000000000000040207BE03C
:105AC0000400000000004000800040002000200092
:105AD0004000000000000000000000000000000086
